{"contracts/ResQNetProtocol.sol":{"ResQNetProtocol":{"abi":[{"inputs":[],"stateMutability":"nonpayable","type":"constructor"},{"inputs":[],"name":"CallerIsNotOwner","type":"error"},{"inputs":[],"name":"InvalidRewardAmount","type":"error"},{"inputs":[],"name":"InvalidStatus","type":"error"},{"inputs":[],"name":"MismatchedFinalStatus","type":"error"},{"inputs":[],"name":"RewardTransferFailed","type":"error"},{"inputs":[],"name":"SOSAlreadyExists","type":"error"},{"inputs":[],"name":"SOSAlreadyFinalized","type":"error"},{"inputs":[],"name":"SOSNotFound","type":"error"},{"inputs":[],"name":"VolunteerNotAssigned","type":"error"},{"inputs":[],"name":"VolunteerNotReported","type":"error"},{"anonymous":false,"inputs":[{"indexed":false,"internalType":"uint256","name":"oldAmount","type":"uint256"},{"indexed":false,"internalType":"uint256","name":"newAmount","type":"uint256"}],"name":"RewardAmountUpdated","type":"event"},{"anonymous":false,"inputs":[{"indexed":true,"internalType":"uint256","name":"sosId","type":"uint256"},{"indexed":false,"internalType":"string","name":"reporterName","type":"string"},{"indexed":true,"internalType":"address","name":"reporterWallet","type":"address"},{"indexed":false,"internalType":"string","name":"emergencyType","type":"string"},{"indexed":false,"internalType":"string","name":"priority","type":"string"},{"indexed":false,"internalType":"uint256","name":"timestamp","type":"uint256"}],"name":"SOSCreated","type":"event"},{"anonymous":false,"inputs":[{"indexed":true,"internalType":"uint256","name":"sosId","type":"uint256"},{"indexed":true,"internalType":"address","name":"volunteerWallet","type":"address"},{"indexed":false,"internalType":"string","name":"status","type":"string"},{"indexed":false,"internalType":"string","name":"finalizedBy","type":"string"},{"indexed":false,"internalType":"int256","name":"newReputation","type":"int256"},{"indexed":false,"internalType":"uint256","name":"rewardPaidWei","type":"uint256"},{"indexed":false,"internalType":"uint256","name":"timestamp","type":"uint256"}],"name":"SOSFinalized","type":"event"},{"anonymous":false,"inputs":[{"indexed":true,"internalType":"uint256","name":"sosId","type":"uint256"},{"indexed":true,"internalType":"address","name":"volunteerWallet","type":"address"},{"indexed":false,"internalType":"string","name":"volunteerName","type":"string"},{"indexed":false,"internalType":"string","name":"assignedBy","type":"string"},{"indexed":false,"internalType":"uint256","name":"timestamp","type":"uint256"}],"name":"VolunteerAssigned","type":"event"},{"anonymous":false,"inputs":[{"indexed":true,"internalType":"uint256","name":"sosId","type":"uint256"},{"indexed":true,"internalType":"address","name":"volunteerWallet","type":"address"},{"indexed":false,"internalType":"string","name":"status","type":"string"},{"indexed":false,"internalType":"string","name":"volunteerNote","type":"string"},{"indexed":false,"internalType":"uint256","name":"timestamp","type":"uint256"}],"name":"VolunteerReported","type":"event"},{"inputs":[{"internalType":"uint256","name":"_sosId","type":"uint256"},{"internalType":"string","name":"_volunteerName","type":"string"},{"internalType":"string","name":"_assignedBy","type":"string"},{"internalType":"address","name":"_volunteerWallet","type":"address"}],"name":"assignVolunteer","outputs":[],"stateMutability":"nonpayable","type":"function"},{"inputs":[{"internalType":"uint256","name":"_sosId","type":"uint256"},{"internalType":"string","name":"_reporterName","type":"string"},{"internalType":"address","name":"_reporterWallet","type":"address"},{"internalType":"string","name":"_message","type":"string"},{"internalType":"string","name":"_emergencyType","type":"string"},{"internalType":"string","name":"_priority","type":"string"},{"internalType":"bool","name":"_suspicious","type":"bool"}],"name":"createSOS","outputs":[],"stateMutability":"nonpayable","type":"function"},{"inputs":[{"internalType":"uint256","name":"_sosId","type":"uint256"},{"internalType":"string","name":"_finalStatus","type":"string"},{"internalType":"string","name":"_finalizedBy","type":"string"},{"internalType":"string","name":"_adminNote","type":"string"}],"name":"finalizeSOS","outputs":[],"stateMutability":"payable","type":"function"},{"inputs":[{"internalType":"address","name":"user","type":"address"}],"name":"getReputation","outputs":[{"internalType":"int256","name":"","type":"int256"}],"stateMutability":"view","type":"function"},{"inputs":[{"internalType":"uint256","name":"_sosId","type":"uint256"}],"name":"getSOS","outputs":[{"components":[{"internalType":"uint256","name":"sosId","type":"uint256"},{"internalType":"string","name":"reporterName","type":"string"},{"internalType":"address","name":"reporterWallet","type":"address"},{"internalType":"string","name":"message","type":"string"},{"internalType":"string","name":"emergencyType","type":"string"},{"internalType":"string","name":"priority","type":"string"},{"internalType":"bool","name":"suspicious","type":"bool"},{"internalType":"string","name":"status","type":"string"},{"internalType":"string","name":"volunteerName","type":"string"},{"internalType":"address","name":"volunteerWallet","type":"address"},{"internalType":"string","name":"assignedBy","type":"string"},{"internalType":"string","name":"volunteerNote","type":"string"},{"internalType":"string","name":"volunteerReportedStatus","type":"string"},{"internalType":"string","name":"finalizedBy","type":"string"},{"internalType":"string","name":"adminNote","type":"string"},{"internalType":"uint256","name":"createdAt","type":"uint256"},{"internalType":"uint256","name":"assignedAt","type":"uint256"},{"internalType":"uint256","name":"volunteerReportedAt","type":"uint256"},{"internalType":"uint256","name":"completedAt","type":"uint256"},{"internalType":"uint256","name":"rewardPaidWei","type":"uint256"},{"internalType":"uint256","name":"rewardPaidAt","type":"uint256"}],"internalType":"struct ResQNetProtocol.SOSRecord","name":"","type":"tuple"}],"stateMutability":"view","type":"function"},{"inputs":[],"name":"owner","outputs":[{"internalType":"address","name":"","type":"address"}],"stateMutability":"view","type":"function"},{"inputs":[{"internalType":"address","name":"","type":"address"}],"name":"reputation","outputs":[{"internalType":"int256","name":"","type":"int256"}],"stateMutability":"view","type":"function"},{"inputs":[],"name":"rewardAmount","outputs":[{"internalType":"uint256","name":"","type":"uint256"}],"stateMutability":"view","type":"function"},{"inputs":[{"internalType":"uint256","name":"","type":"uint256"}],"name":"sosExists","outputs":[{"internalType":"bool","name":"","type":"bool"}],"stateMutability":"view","type":"function"},{"inputs":[{"internalType":"uint256","name":"_newAmount","type":"uint256"}],"name":"updateRewardAmount","outputs":[],"stateMutability":"nonpayable","type":"function"},{"inputs":[{"internalType":"uint256","name":"_sosId","type":"uint256"},{"internalType":"string","name":"_status","type":"string"},{"internalType":"string","name":"_volunteerNote","type":"string"}],"name":"volunteerReportSOS","outputs":[],"stateMutability":"nonpayable","type":"function"}],"evm":{"bytecode":{"linkReferences":{},"object":"608060405234801561001057600080fd5b50336000806101000a81548173ffffffffffffffffffffffffffffffffffffffff021916908373ffffffffffffffffffffffffffffffffffffffff160217905550655af3107a4000600181905550612f428061006d6000396000f3fe60806040526004361061009c5760003560e01c80638da5cb5b116100645780638da5cb5b146101825780639c89a0e2146101ad578063b9f79451146101ea578063c729ff3314610227578063dadad07114610264578063f7b2a7be146102805761009c565b806315c2ba14146100a1578063202944ea146100ca578063360530cb146100f357806344848ba414610130578063625248cb14610159575b600080fd5b3480156100ad57600080fd5b506100c860048036038101906100c3919061205c565b6102ab565b005b3480156100d657600080fd5b506100f160048036038101906100ec91906121cf565b61037b565b005b3480156100ff57600080fd5b5061011a6004803603810190610115919061205c565b610772565b6040516101279190612275565b60405180910390f35b34801561013c57600080fd5b506101576004803603810190610152919061231a565b610792565b005b34801561016557600080fd5b50610180600480360381019061017b919061242c565b610c4d565b005b34801561018e57600080fd5b50610197610e8f565b6040516101a491906124da565b60405180910390f35b3480156101b957600080fd5b506101d460048036038101906101cf91906124f5565b610eb3565b6040516101e1919061253b565b60405180910390f35b3480156101f657600080fd5b50610211600480360381019061020c91906124f5565b610efc565b60405161021e919061253b565b60405180910390f35b34801561023357600080fd5b5061024e6004803603810190610249919061205c565b610f14565b60405161025b9190612809565b60405180910390f35b61027e6004803603810190610279919061282b565b6116ec565b005b34801561028c57600080fd5b50610295611f3e565b6040516102a291906128f5565b60405180910390f35b60008054906101000a900473ffffffffffffffffffffffffffffffffffffffff1673ffffffffffffffffffffffffffffffffffffffff163373ffffffffffffffffffffffffffffffffffffffff1614610330576040517f6db2465f00000000000000000000000000000000000000000000000000000000815260040160405180910390fd5b60006001549050816001819055507ff0d37c3ae852021ac329281f604b658691cbfa6b9e9c22909f06b64a8ce87c94818360405161036f929190612910565b60405180910390a15050565b60008054906101000a900473ffffffffffffffffffffffffffffffffffffffff1673ffffffffffffffffffffffffffffffffffffffff163373ffffffffffffffffffffffffffffffffffffffff1614610400576040517f6db2465f00000000000000000000000000000000000000000000000000000000815260040160405180910390fd5b6003600084815260200190815260200160002060009054906101000a900460ff16610457576040517fca2a541a00000000000000000000000000000000000000000000000000000000815260040160405180910390fd5b6000600260008581526020019081526020016000209050600073ffffffffffffffffffffffffffffffffffffffff168160090160009054906101000a900473ffffffffffffffffffffffffffffffffffffffff1673ffffffffffffffffffffffffffffffffffffffff16036104f8576040517f39dec4db00000000000000000000000000000000000000000000000000000000815260040160405180910390fd5b6000816012015414610536576040517fcdd41a0c00000000000000000000000000000000000000000000000000000000815260040160405180910390fd5b6000838051906020012090506040518060400160405280600981526020017f636f6d706c6574656400000000000000000000000000000000000000000000008152508051906020012081141580156105ca57506040518060400160405280600481526020017f66616b6500000000000000000000000000000000000000000000000000000000815250805190602001208114155b15610601576040517ff525e32000000000000000000000000000000000000000000000000000000000815260040160405180910390fd5b6040518060400160405280600981526020017f636f6d706c65746564000000000000000000000000000000000000000000000081525080519060200120811461067f576040518060400160405280600e81526020017f766f6c756e746565725f66616b650000000000000000000000000000000000008152506106b6565b6040518060400160405280601381526020017f766f6c756e746565725f636f6d706c65746564000000000000000000000000008152505b8260070190816106c69190612b45565b508382600c0190816106d89190612b45565b508282600b0190816106ea9190612b45565b504282601101819055508160090160009054906101000a900473ffffffffffffffffffffffffffffffffffffffff1673ffffffffffffffffffffffffffffffffffffffff16857fe60c2a5c4bc6189b38fe13f0d09f808d1905762bba86c646c1cf5769dc41bc7d86864260405161076393929190612c61565b60405180910390a35050505050565b60036020528060005260406000206000915054906101000a900460ff1681565b60008054906101000a900473ffffffffffffffffffffffffffffffffffffffff1673ffffffffffffffffffffffffffffffffffffffff163373ffffffffffffffffffffffffffffffffffffffff1614610817576040517f6db2465f00000000000000000000000000000000000000000000000000000000815260040160405180910390fd5b6003600088815260200190815260200160002060009054906101000a900460ff161561086f576040517f8cd7d72400000000000000000000000000000000000000000000000000000000815260040160405180910390fd5b604051806102a001604052808881526020018781526020018673ffffffffffffffffffffffffffffffffffffffff16815260200185815260200184815260200183815260200182151581526020016040518060400160405280600781526020017f70656e64696e67000000000000000000000000000000000000000000000000008152508152602001604051806020016040528060008152508152602001600073ffffffffffffffffffffffffffffffffffffffff168152602001604051806020016040528060008152508152602001604051806020016040528060008152508152602001604051806020016040528060008152508152602001604051806020016040528060008152508152602001604051806020016040528060008152508152602001428152602001600081526020016000815260200160008152602001600081526020016000815250600260008981526020019081526020016000206000820151816000015560208201518160010190816109ec9190612b45565b5060408201518160020160006101000a81548173ffffffffffffffffffffffffffffffffffffffff021916908373ffffffffffffffffffffffffffffffffffffffff1602179055506060820151816003019081610a499190612b45565b506080820151816004019081610a5f9190612b45565b5060a0820151816005019081610a759190612b45565b5060c08201518160060160006101000a81548160ff02191690831515021790555060e0820151816007019081610aab9190612b45565b50610100820151816008019081610ac29190612b45565b506101208201518160090160006101000a81548173ffffffffffffffffffffffffffffffffffffffff021916908373ffffffffffffffffffffffffffffffffffffffff16021790555061014082015181600a019081610b219190612b45565b5061016082015181600b019081610b389190612b45565b5061018082015181600c019081610b4f9190612b45565b506101a082015181600d019081610b669190612b45565b506101c082015181600e019081610b7d9190612b45565b506101e082015181600f01556102008201518160100155610220820151816011015561024082015181601201556102608201518160130155610280820151816014015590505060016003600089815260200190815260200160002060006101000a81548160ff0219169083151502179055508473ffffffffffffffffffffffffffffffffffffffff16877f6f4442f567af7ee7920ee939efa1c0730fd7d46d2869b986d006c82c76d6c5be88868642604051610c3c9493929190612ca6565b60405180910390a350505050505050565b60008054906101000a900473ffffffffffffffffffffffffffffffffffffffff1673ffffffffffffffffffffffffffffffffffffffff163373ffffffffffffffffffffffffffffffffffffffff1614610cd2576040517f6db2465f00000000000000000000000000000000000000000000000000000000815260040160405180910390fd5b6003600085815260200190815260200160002060009054906101000a900460ff16610d29576040517fca2a541a00000000000000000000000000000000000000000000000000000000815260040160405180910390fd5b60006002600086815260200190815260200160002090506000816012015414610d7e576040517fcdd41a0c00000000000000000000000000000000000000000000000000000000815260040160405180910390fd5b6040518060400160405280600881526020017f61737369676e6564000000000000000000000000000000000000000000000000815250816007019081610dc49190612b45565b5083816008019081610dd69190612b45565b50818160090160006101000a81548173ffffffffffffffffffffffffffffffffffffffff021916908373ffffffffffffffffffffffffffffffffffffffff1602179055508281600a019081610e2b9190612b45565b504281601001819055508173ffffffffffffffffffffffffffffffffffffffff16857f4da86fee71bc991e7f2c1cfb9b4d97f11d8b1140e0eb3c7405b4cb2b386ac89f868642604051610e8093929190612c61565b60405180910390a35050505050565b60008054906101000a900473ffffffffffffffffffffffffffffffffffffffff1681565b6000600460008373ffffffffffffffffffffffffffffffffffffffff1673ffffffffffffffffffffffffffffffffffffffff168152602001908152602001600020549050919050565b60046020528060005260406000206000915090505481565b610f1c611f44565b6003600083815260200190815260200160002060009054906101000a900460ff16610f73576040517fca2a541a00000000000000000000000000000000000000000000000000000000815260040160405180910390fd5b60026000838152602001908152602001600020604051806102a001604052908160008201548152602001600182018054610fac90612968565b80601f0160208091040260200160405190810160405280929190818152602001828054610fd890612968565b80156110255780601f10610ffa57610100808354040283529160200191611025565b820191906000526020600020905b81548152906001019060200180831161100857829003601f168201915b505050505081526020016002820160009054906101000a900473ffffffffffffffffffffffffffffffffffffffff1673ffffffffffffffffffffffffffffffffffffffff1673ffffffffffffffffffffffffffffffffffffffff16815260200160038201805461109490612968565b80601f01602080910402602001604051908101604052809291908181526020018280546110c090612968565b801561110d5780601f106110e25761010080835404028352916020019161110d565b820191906000526020600020905b8154815290600101906020018083116110f057829003601f168201915b5050505050815260200160048201805461112690612968565b80601f016020809104026020016040519081016040528092919081815260200182805461115290612968565b801561119f5780601f106111745761010080835404028352916020019161119f565b820191906000526020600020905b81548152906001019060200180831161118257829003601f168201915b505050505081526020016005820180546111b890612968565b80601f01602080910402602001604051908101604052809291908181526020018280546111e490612968565b80156112315780601f1061120657610100808354040283529160200191611231565b820191906000526020600020905b81548152906001019060200180831161121457829003601f168201915b505050505081526020016006820160009054906101000a900460ff1615151515815260200160078201805461126590612968565b80601f016020809104026020016040519081016040528092919081815260200182805461129190612968565b80156112de5780601f106112b3576101008083540402835291602001916112de565b820191906000526020600020905b8154815290600101906020018083116112c157829003601f168201915b505050505081526020016008820180546112f790612968565b80601f016020809104026020016040519081016040528092919081815260200182805461132390612968565b80156113705780601f1061134557610100808354040283529160200191611370565b820191906000526020600020905b81548152906001019060200180831161135357829003601f168201915b505050505081526020016009820160009054906101000a900473ffffffffffffffffffffffffffffffffffffffff1673ffffffffffffffffffffffffffffffffffffffff1673ffffffffffffffffffffffffffffffffffffffff168152602001600a820180546113df90612968565b80601f016020809104026020016040519081016040528092919081815260200182805461140b90612968565b80156114585780601f1061142d57610100808354040283529160200191611458565b820191906000526020600020905b81548152906001019060200180831161143b57829003601f168201915b50505050508152602001600b8201805461147190612968565b80601f016020809104026020016040519081016040528092919081815260200182805461149d90612968565b80156114ea5780601f106114bf576101008083540402835291602001916114ea565b820191906000526020600020905b8154815290600101906020018083116114cd57829003601f168201915b50505050508152602001600c8201805461150390612968565b80601f016020809104026020016040519081016040528092919081815260200182805461152f90612968565b801561157c5780601f106115515761010080835404028352916020019161157c565b820191906000526020600020905b81548152906001019060200180831161155f57829003601f168201915b50505050508152602001600d8201805461159590612968565b80601f01602080910402602001604051908101604052809291908181526020018280546115c190612968565b801561160e5780601f106115e35761010080835404028352916020019161160e565b820191906000526020600020905b8154815290600101906020018083116115f157829003601f168201915b50505050508152602001600e8201805461162790612968565b80601f016020809104026020016040519081016040528092919081815260200182805461165390612968565b80156116a05780601f10611675576101008083540402835291602001916116a0565b820191906000526020600020905b81548152906001019060200180831161168357829003601f168201915b50505050508152602001600f8201548152602001601082015481526020016011820154815260200160128201548152602001601382015481526020016014820154815250509050919050565b60008054906101000a900473ffffffffffffffffffffffffffffffffffffffff1673ffffffffffffffffffffffffffffffffffffffff163373ffffffffffffffffffffffffffffffffffffffff1614611771576040517f6db2465f00000000000000000000000000000000000000000000000000000000815260040160405180910390fd5b6003600085815260200190815260200160002060009054906101000a900460ff166117c8576040517fca2a541a00000000000000000000000000000000000000000000000000000000815260040160405180910390fd5b6000600260008681526020019081526020016000209050600073ffffffffffffffffffffffffffffffffffffffff168160090160009054906101000a900473ffffffffffffffffffffffffffffffffffffffff1673ffffffffffffffffffffffffffffffffffffffff1603611869576040517f39dec4db00000000000000000000000000000000000000000000000000000000815260040160405180910390fd5b60008160110154036118a7576040517f2e6f50c700000000000000000000000000000000000000000000000000000000815260040160405180910390fd5b60008160120154146118e5576040517fcdd41a0c00000000000000000000000000000000000000000000000000000000815260040160405180910390fd5b600084805190602001209050600082600c016040516119049190612da3565b604051809103902090506040518060400160405280600981526020017f636f6d706c65746564000000000000000000000000000000000000000000000081525080519060200120821415801561199657506040518060400160405280600481526020017f66616b6500000000000000000000000000000000000000000000000000000000815250805190602001208214155b80156119de57506040518060400160405280600881526020017f6469737075746564000000000000000000000000000000000000000000000000815250805190602001208214155b15611a15576040517ff525e32000000000000000000000000000000000000000000000000000000000815260040160405180910390fd5b6040518060400160405280600981526020017f636f6d706c657465640000000000000000000000000000000000000000000000815250805190602001208203611c66576040518060400160405280600981526020017f636f6d706c657465640000000000000000000000000000000000000000000000815250805190602001208114611acd576040517fd73595ae00000000000000000000000000000000000000000000000000000000815260040160405180910390fd5b6001543414611b08576040517f3853986500000000000000000000000000000000000000000000000000000000815260040160405180910390fd5b60008360090160009054906101000a900473ffffffffffffffffffffffffffffffffffffffff1673ffffffffffffffffffffffffffffffffffffffff16600154604051611b5490612de0565b60006040518083038185875af1925050503d8060008114611b91576040519150601f19603f3d011682016040523d82523d6000602084013e611b96565b606091505b5050905080611bd1576040517f78ecf41000000000000000000000000000000000000000000000000000000000815260040160405180910390fd5b60015484601301819055504284601401819055506001600460008660090160009054906101000a900473ffffffffffffffffffffffffffffffffffffffff1673ffffffffffffffffffffffffffffffffffffffff1673ffffffffffffffffffffffffffffffffffffffff1681526020019081526020016000206000828254611c599190612e24565b9250508190555050611e14565b6040518060400160405280600481526020017f66616b6500000000000000000000000000000000000000000000000000000000815250805190602001208203611dd8576040518060400160405280600481526020017f66616b6500000000000000000000000000000000000000000000000000000000815250805190602001208114611d1e576040517fd73595ae00000000000000000000000000000000000000000000000000000000815260040160405180910390fd5b60003414611d58576040517f3853986500000000000000000000000000000000000000000000000000000000815260040160405180910390fd5b6001600460008560090160009054906101000a900473ffffffffffffffffffffffffffffffffffffffff1673ffffffffffffffffffffffffffffffffffffffff1673ffffffffffffffffffffffffffffffffffffffff1681526020019081526020016000206000828254611dcc9190612e68565b92505081905550611e13565b60003414611e12576040517f3853986500000000000000000000000000000000000000000000000000000000815260040160405180910390fd5b5b5b85836007019081611e259190612b45565b508483600d019081611e379190612b45565b508383600e019081611e499190612b45565b504283601201819055508260090160009054906101000a900473ffffffffffffffffffffffffffffffffffffffff1673ffffffffffffffffffffffffffffffffffffffff16877f841642661dc21f155759d663620ebb0ebff6408445ee5854c1854fcc60d52f408888600460008960090160009054906101000a900473ffffffffffffffffffffffffffffffffffffffff1673ffffffffffffffffffffffffffffffffffffffff1673ffffffffffffffffffffffffffffffffffffffff16815260200190815260200160002054886013015442604051611f2d959493929190612eab565b60405180910390a350505050505050565b60015481565b604051806102a001604052806000815260200160608152602001600073ffffffffffffffffffffffffffffffffffffffff1681526020016060815260200160608152602001606081526020016000151581526020016060815260200160608152602001600073ffffffffffffffffffffffffffffffffffffffff16815260200160608152602001606081526020016060815260200160608152602001606081526020016000815260200160008152602001600081526020016000815260200160008152602001600081525090565b6000604051905090565b600080fd5b600080fd5b6000819050919050565b61203981612026565b811461204457600080fd5b50565b60008135905061205681612030565b92915050565b6000602082840312156120725761207161201c565b5b600061208084828501612047565b91505092915050565b600080fd5b600080fd5b6000601f19601f8301169050919050565b7f4e487b7100000000000000000000000000000000000000000000000000000000600052604160045260246000fd5b6120dc82612093565b810181811067ffffffffffffffff821117156120fb576120fa6120a4565b5b80604052505050565b600061210e612012565b905061211a82826120d3565b919050565b600067ffffffffffffffff82111561213a576121396120a4565b5b61214382612093565b9050602081019050919050565b82818337600083830152505050565b600061217261216d8461211f565b612104565b90508281526020810184848401111561218e5761218d61208e565b5b612199848285612150565b509392505050565b600082601f8301126121b6576121b5612089565b5b81356121c684826020860161215f565b91505092915050565b6000806000606084860312156121e8576121e761201c565b5b60006121f686828701612047565b935050602084013567ffffffffffffffff81111561221757612216612021565b5b612223868287016121a1565b925050604084013567ffffffffffffffff81111561224457612243612021565b5b612250868287016121a1565b9150509250925092565b60008115159050919050565b61226f8161225a565b82525050565b600060208201905061228a6000830184612266565b92915050565b600073ffffffffffffffffffffffffffffffffffffffff82169050919050565b60006122bb82612290565b9050919050565b6122cb816122b0565b81146122d657600080fd5b50565b6000813590506122e8816122c2565b92915050565b6122f78161225a565b811461230257600080fd5b50565b600081359050612314816122ee565b92915050565b600080600080600080600060e0888a0312156123395761233861201c565b5b60006123478a828b01612047565b975050602088013567ffffffffffffffff81111561236857612367612021565b5b6123748a828b016121a1565b96505060406123858a828b016122d9565b955050606088013567ffffffffffffffff8111156123a6576123a5612021565b5b6123b28a828b016121a1565b945050608088013567ffffffffffffffff8111156123d3576123d2612021565b5b6123df8a828b016121a1565b93505060a088013567ffffffffffffffff811115612400576123ff612021565b5b61240c8a828b016121a1565b92505060c061241d8a828b01612305565b91505092959891949750929550565b600080600080608085870312156124465761244561201c565b5b600061245487828801612047565b945050602085013567ffffffffffffffff81111561247557612474612021565b5b612481878288016121a1565b935050604085013567ffffffffffffffff8111156124a2576124a1612021565b5b6124ae878288016121a1565b92505060606124bf878288016122d9565b91505092959194509250565b6124d4816122b0565b82525050565b60006020820190506124ef60008301846124cb565b92915050565b60006020828403121561250b5761250a61201c565b5b6000612519848285016122d9565b91505092915050565b6000819050919050565b61253581612522565b82525050565b6000602082019050612550600083018461252c565b92915050565b61255f81612026565b82525050565b600081519050919050565b600082825260208201905092915050565b60005b8381101561259f578082015181840152602081019050612584565b60008484015250505050565b60006125b682612565565b6125c08185612570565b93506125d0818560208601612581565b6125d981612093565b840191505092915050565b6125ed816122b0565b82525050565b6125fc8161225a565b82525050565b60006102a08301600083015161261b6000860182612556565b506020830151848203602086015261263382826125ab565b915050604083015161264860408601826125e4565b506060830151848203606086015261266082826125ab565b9150506080830151848203608086015261267a82826125ab565b91505060a083015184820360a086015261269482826125ab565b91505060c08301516126a960c08601826125f3565b5060e083015184820360e08601526126c182826125ab565b9150506101008301518482036101008601526126dd82826125ab565b9150506101208301516126f46101208601826125e4565b5061014083015184820361014086015261270e82826125ab565b91505061016083015184820361016086015261272a82826125ab565b91505061018083015184820361018086015261274682826125ab565b9150506101a08301518482036101a086015261276282826125ab565b9150506101c08301518482036101c086015261277e82826125ab565b9150506101e08301516127956101e0860182612556565b506102008301516127aa610200860182612556565b506102208301516127bf610220860182612556565b506102408301516127d4610240860182612556565b506102608301516127e9610260860182612556565b506102808301516127fe610280860182612556565b508091505092915050565b600060208201905081810360008301526128238184612602565b905092915050565b600080600080608085870312156128455761284461201c565b5b600061285387828801612047565b945050602085013567ffffffffffffffff81111561287457612873612021565b5b612880878288016121a1565b935050604085013567ffffffffffffffff8111156128a1576128a0612021565b5b6128ad878288016121a1565b925050606085013567ffffffffffffffff8111156128ce576128cd612021565b5b6128da878288016121a1565b91505092959194509250565b6128ef81612026565b82525050565b600060208201905061290a60008301846128e6565b92915050565b600060408201905061292560008301856128e6565b61293260208301846128e6565b9392505050565b7f4e487b7100000000000000000000000000000000000000000000000000000000600052602260045260246000fd5b6000600282049050600182168061298057607f821691505b60208210810361299357612992612939565b5b50919050565b60008190508160005260206000209050919050565b60006020601f8301049050919050565b600082821b905092915050565b6000600883026129fb7fffffffffffffffffffffffffffffffffffffffffffffffffffffffffffffffff826129be565b612a0586836129be565b95508019841693508086168417925050509392505050565b6000819050919050565b6000612a42612a3d612a3884612026565b612a1d565b612026565b9050919050565b6000819050919050565b612a5c83612a27565b612a70612a6882612a49565b8484546129cb565b825550505050565b600090565b612a85612a78565b612a90818484612a53565b505050565b5b81811015612ab457612aa9600082612a7d565b600181019050612a96565b5050565b601f821115612af957612aca81612999565b612ad3846129ae565b81016020851015612ae2578190505b612af6612aee856129ae565b830182612a95565b50505b505050565b600082821c905092915050565b6000612b1c60001984600802612afe565b1980831691505092915050565b6000612b358383612b0b565b9150826002028217905092915050565b612b4e82612565565b67ffffffffffffffff811115612b6757612b666120a4565b5b612b718254612968565b612b7c828285612ab8565b600060209050601f831160018114612baf5760008415612b9d578287015190505b612ba78582612b29565b865550612c0f565b601f198416612bbd86612999565b60005b82811015612be557848901518255600182019150602085019450602081019050612bc0565b86831015612c025784890151612bfe601f891682612b0b565b8355505b6001600288020188555050505b505050505050565b600082825260208201905092915050565b6000612c3382612565565b612c3d8185612c17565b9350612c4d818560208601612581565b612c5681612093565b840191505092915050565b60006060820190508181036000830152612c7b8186612c28565b90508181036020830152612c8f8185612c28565b9050612c9e60408301846128e6565b949350505050565b60006080820190508181036000830152612cc08187612c28565b90508181036020830152612cd48186612c28565b90508181036040830152612ce88185612c28565b9050612cf760608301846128e6565b95945050505050565b600081905092915050565b60008190508160005260206000209050919050565b60008154612d2d81612968565b612d378186612d00565b94506001821660008114612d525760018114612d6757612d9a565b60ff1983168652811515820286019350612d9a565b612d7085612d0b565b60005b83811015612d9257815481890152600182019150602081019050612d73565b838801955050505b50505092915050565b6000612daf8284612d20565b915081905092915050565b50565b6000612dca600083612d00565b9150612dd582612dba565b600082019050919050565b6000612deb82612dbd565b9150819050919050565b7f4e487b7100000000000000000000000000000000000000000000000000000000600052601160045260246000fd5b6000612e2f82612522565b9150612e3a83612522565b925082820190508281121560008312168382126000841215161715612e6257612e61612df5565b5b92915050565b6000612e7382612522565b9150612e7e83612522565b9250828203905081811260008412168282136000851215161715612ea557612ea4612df5565b5b92915050565b600060a0820190508181036000830152612ec58188612c28565b90508181036020830152612ed98187612c28565b9050612ee8604083018661252c565b612ef560608301856128e6565b612f0260808301846128e6565b969550505050505056fea26469706673582212202bc857870617c2e034eaf3c631b021a9828156fce0679d4e41b240bd6d844ef964736f6c63430008180033","opcodes":"PUSH1 0x80 PUSH1 0x40 MSTORE CALLVALUE DUP1 ISZERO PUSH2 0x10 JUMPI PUSH1 0x0 DUP1 REVERT JUMPDEST POP CALLER PUSH1 0x0 DUP1 PUSH2 0x100 EXP DUP2 SLOAD DUP2 PUSH20 0xFFFFFFFFFFFFFFFFFFFFFFFFFFFFFFFFFFFFFFFF MUL NOT AND SWAP1 DUP4 PUSH20 0xFFFFFFFFFFFFFFFFFFFFFFFFFFFFFFFFFFFFFFFF AND MUL OR SWAP1 SSTORE POP PUSH6 0x5AF3107A4000 PUSH1 0x1 DUP2 SWAP1 SSTORE POP PUSH2 0x2F42 DUP1 PUSH2 0x6D PUSH1 0x0 CODECOPY PUSH1 0x0 RETURN INVALID PUSH1 0x80 PUSH1 0x40 MSTORE PUSH1 0x4 CALLDATASIZE LT PUSH2 0x9C JUMPI PUSH1 0x0 CALLDATALOAD PUSH1 0xE0 SHR DUP1 PUSH4 0x8DA5CB5B GT PUSH2 0x64 JUMPI DUP1 PUSH4 0x8DA5CB5B EQ PUSH2 0x182 JUMPI DUP1 PUSH4 0x9C89A0E2 EQ PUSH2 0x1AD JUMPI DUP1 PUSH4 0xB9F79451 EQ PUSH2 0x1EA JUMPI DUP1 PUSH4 0xC729FF33 EQ PUSH2 0x227 JUMPI DUP1 PUSH4 0xDADAD071 EQ PUSH2 0x264 JUMPI DUP1 PUSH4 0xF7B2A7BE EQ PUSH2 0x280 JUMPI PUSH2 0x9C JUMP JUMPDEST DUP1 PUSH4 0x15C2BA14 EQ PUSH2 0xA1 JUMPI DUP1 PUSH4 0x202944EA EQ PUSH2 0xCA JUMPI DUP1 PUSH4 0x360530CB EQ PUSH2 0xF3 JUMPI DUP1 PUSH4 0x44848BA4 EQ PUSH2 0x130 JUMPI DUP1 PUSH4 0x625248CB EQ PUSH2 0x159 JUMPI JUMPDEST PUSH1 0x0 DUP1 REVERT JUMPDEST CALLVALUE DUP1 ISZERO PUSH2 0xAD JUMPI PUSH1 0x0 DUP1 REVERT JUMPDEST POP PUSH2 0xC8 PUSH1 0x4 DUP1 CALLDATASIZE SUB DUP2 ADD SWAP1 PUSH2 0xC3 SWAP2 SWAP1 PUSH2 0x205C JUMP JUMPDEST PUSH2 0x2AB JUMP JUMPDEST STOP JUMPDEST CALLVALUE DUP1 ISZERO PUSH2 0xD6 JUMPI PUSH1 0x0 DUP1 REVERT JUMPDEST POP PUSH2 0xF1 PUSH1 0x4 DUP1 CALLDATASIZE SUB DUP2 ADD SWAP1 PUSH2 0xEC SWAP2 SWAP1 PUSH2 0x21CF JUMP JUMPDEST PUSH2 0x37B JUMP JUMPDEST STOP JUMPDEST CALLVALUE DUP1 ISZERO PUSH2 0xFF JUMPI PUSH1 0x0 DUP1 REVERT JUMPDEST POP PUSH2 0x11A PUSH1 0x4 DUP1 CALLDATASIZE SUB DUP2 ADD SWAP1 PUSH2 0x115 SWAP2 SWAP1 PUSH2 0x205C JUMP JUMPDEST PUSH2 0x772 JUMP JUMPDEST PUSH1 0x40 MLOAD PUSH2 0x127 SWAP2 SWAP1 PUSH2 0x2275 JUMP JUMPDEST PUSH1 0x40 MLOAD DUP1 SWAP2 SUB SWAP1 RETURN JUMPDEST CALLVALUE DUP1 ISZERO PUSH2 0x13C JUMPI PUSH1 0x0 DUP1 REVERT JUMPDEST POP PUSH2 0x157 PUSH1 0x4 DUP1 CALLDATASIZE SUB DUP2 ADD SWAP1 PUSH2 0x152 SWAP2 SWAP1 PUSH2 0x231A JUMP JUMPDEST PUSH2 0x792 JUMP JUMPDEST STOP JUMPDEST CALLVALUE DUP1 ISZERO PUSH2 0x165 JUMPI PUSH1 0x0 DUP1 REVERT JUMPDEST POP PUSH2 0x180 PUSH1 0x4 DUP1 CALLDATASIZE SUB DUP2 ADD SWAP1 PUSH2 0x17B SWAP2 SWAP1 PUSH2 0x242C JUMP JUMPDEST PUSH2 0xC4D JUMP JUMPDEST STOP JUMPDEST CALLVALUE DUP1 ISZERO PUSH2 0x18E JUMPI PUSH1 0x0 DUP1 REVERT JUMPDEST POP PUSH2 0x197 PUSH2 0xE8F JUMP JUMPDEST PUSH1 0x40 MLOAD PUSH2 0x1A4 SWAP2 SWAP1 PUSH2 0x24DA JUMP JUMPDEST PUSH1 0x40 MLOAD DUP1 SWAP2 SUB SWAP1 RETURN JUMPDEST CALLVALUE DUP1 ISZERO PUSH2 0x1B9 JUMPI PUSH1 0x0 DUP1 REVERT JUMPDEST POP PUSH2 0x1D4 PUSH1 0x4 DUP1 CALLDATASIZE SUB DUP2 ADD SWAP1 PUSH2 0x1CF SWAP2 SWAP1 PUSH2 0x24F5 JUMP JUMPDEST PUSH2 0xEB3 JUMP JUMPDEST PUSH1 0x40 MLOAD PUSH2 0x1E1 SWAP2 SWAP1 PUSH2 0x253B JUMP JUMPDEST PUSH1 0x40 MLOAD DUP1 SWAP2 SUB SWAP1 RETURN JUMPDEST CALLVALUE DUP1 ISZERO PUSH2 0x1F6 JUMPI PUSH1 0x0 DUP1 REVERT JUMPDEST POP PUSH2 0x211 PUSH1 0x4 DUP1 CALLDATASIZE SUB DUP2 ADD SWAP1 PUSH2 0x20C SWAP2 SWAP1 PUSH2 0x24F5 JUMP JUMPDEST PUSH2 0xEFC JUMP JUMPDEST PUSH1 0x40 MLOAD PUSH2 0x21E SWAP2 SWAP1 PUSH2 0x253B JUMP JUMPDEST PUSH1 0x40 MLOAD DUP1 SWAP2 SUB SWAP1 RETURN JUMPDEST CALLVALUE DUP1 ISZERO PUSH2 0x233 JUMPI PUSH1 0x0 DUP1 REVERT JUMPDEST POP PUSH2 0x24E PUSH1 0x4 DUP1 CALLDATASIZE SUB DUP2 ADD SWAP1 PUSH2 0x249 SWAP2 SWAP1 PUSH2 0x205C JUMP JUMPDEST PUSH2 0xF14 JUMP JUMPDEST PUSH1 0x40 MLOAD PUSH2 0x25B SWAP2 SWAP1 PUSH2 0x2809 JUMP JUMPDEST PUSH1 0x40 MLOAD DUP1 SWAP2 SUB SWAP1 RETURN JUMPDEST PUSH2 0x27E PUSH1 0x4 DUP1 CALLDATASIZE SUB DUP2 ADD SWAP1 PUSH2 0x279 SWAP2 SWAP1 PUSH2 0x282B JUMP JUMPDEST PUSH2 0x16EC JUMP JUMPDEST STOP JUMPDEST CALLVALUE DUP1 ISZERO PUSH2 0x28C JUMPI PUSH1 0x0 DUP1 REVERT JUMPDEST POP PUSH2 0x295 PUSH2 0x1F3E JUMP JUMPDEST PUSH1 0x40 MLOAD PUSH2 0x2A2 SWAP2 SWAP1 PUSH2 0x28F5 JUMP JUMPDEST PUSH1 0x40 MLOAD DUP1 SWAP2 SUB SWAP1 RETURN JUMPDEST PUSH1 0x0 DUP1 SLOAD SWAP1 PUSH2 0x100 EXP SWAP1 DIV PUSH20 0xFFFFFFFFFFFFFFFFFFFFFFFFFFFFFFFFFFFFFFFF AND PUSH20 0xFFFFFFFFFFFFFFFFFFFFFFFFFFFFFFFFFFFFFFFF AND CALLER PUSH20 0xFFFFFFFFFFFFFFFFFFFFFFFFFFFFFFFFFFFFFFFF AND EQ PUSH2 0x330 JUMPI PUSH1 0x40 MLOAD PUSH32 0x6DB2465F00000000000000000000000000000000000000000000000000000000 DUP2 MSTORE PUSH1 0x4 ADD PUSH1 0x40 MLOAD DUP1 SWAP2 SUB SWAP1 REVERT JUMPDEST PUSH1 0x0 PUSH1 0x1 SLOAD SWAP1 POP DUP2 PUSH1 0x1 DUP2 SWAP1 SSTORE POP PUSH32 0xF0D37C3AE852021AC329281F604B658691CBFA6B9E9C22909F06B64A8CE87C94 DUP2 DUP4 PUSH1 0x40 MLOAD PUSH2 0x36F SWAP3 SWAP2 SWAP1 PUSH2 0x2910 JUMP JUMPDEST PUSH1 0x40 MLOAD DUP1 SWAP2 SUB SWAP1 LOG1 POP POP JUMP JUMPDEST PUSH1 0x0 DUP1 SLOAD SWAP1 PUSH2 0x100 EXP SWAP1 DIV PUSH20 0xFFFFFFFFFFFFFFFFFFFFFFFFFFFFFFFFFFFFFFFF AND PUSH20 0xFFFFFFFFFFFFFFFFFFFFFFFFFFFFFFFFFFFFFFFF AND CALLER PUSH20 0xFFFFFFFFFFFFFFFFFFFFFFFFFFFFFFFFFFFFFFFF AND EQ PUSH2 0x400 JUMPI PUSH1 0x40 MLOAD PUSH32 0x6DB2465F00000000000000000000000000000000000000000000000000000000 DUP2 MSTORE PUSH1 0x4 ADD PUSH1 0x40 MLOAD DUP1 SWAP2 SUB SWAP1 REVERT JUMPDEST PUSH1 0x3 PUSH1 0x0 DUP5 DUP2 MSTORE PUSH1 0x20 ADD SWAP1 DUP2 MSTORE PUSH1 0x20 ADD PUSH1 0x0 KECCAK256 PUSH1 0x0 SWAP1 SLOAD SWAP1 PUSH2 0x100 EXP SWAP1 DIV PUSH1 0xFF AND PUSH2 0x457 JUMPI PUSH1 0x40 MLOAD PUSH32 0xCA2A541A00000000000000000000000000000000000000000000000000000000 DUP2 MSTORE PUSH1 0x4 ADD PUSH1 0x40 MLOAD DUP1 SWAP2 SUB SWAP1 REVERT JUMPDEST PUSH1 0x0 PUSH1 0x2 PUSH1 0x0 DUP6 DUP2 MSTORE PUSH1 0x20 ADD SWAP1 DUP2 MSTORE PUSH1 0x20 ADD PUSH1 0x0 KECCAK256 SWAP1 POP PUSH1 0x0 PUSH20 0xFFFFFFFFFFFFFFFFFFFFFFFFFFFFFFFFFFFFFFFF AND DUP2 PUSH1 0x9 ADD PUSH1 0x0 SWAP1 SLOAD SWAP1 PUSH2 0x100 EXP SWAP1 DIV PUSH20 0xFFFFFFFFFFFFFFFFFFFFFFFFFFFFFFFFFFFFFFFF AND PUSH20 0xFFFFFFFFFFFFFFFFFFFFFFFFFFFFFFFFFFFFFFFF AND SUB PUSH2 0x4F8 JUMPI PUSH1 0x40 MLOAD PUSH32 0x39DEC4DB00000000000000000000000000000000000000000000000000000000 DUP2 MSTORE PUSH1 0x4 ADD PUSH1 0x40 MLOAD DUP1 SWAP2 SUB SWAP1 REVERT JUMPDEST PUSH1 0x0 DUP2 PUSH1 0x12 ADD SLOAD EQ PUSH2 0x536 JUMPI PUSH1 0x40 MLOAD PUSH32 0xCDD41A0C00000000000000000000000000000000000000000000000000000000 DUP2 MSTORE PUSH1 0x4 ADD PUSH1 0x40 MLOAD DUP1 SWAP2 SUB SWAP1 REVERT JUMPDEST PUSH1 0x0 DUP4 DUP1 MLOAD SWAP1 PUSH1 0x20 ADD KECCAK256 SWAP1 POP PUSH1 0x40 MLOAD DUP1 PUSH1 0x40 ADD PUSH1 0x40 MSTORE DUP1 PUSH1 0x9 DUP2 MSTORE PUSH1 0x20 ADD PUSH32 0x636F6D706C657465640000000000000000000000000000000000000000000000 DUP2 MSTORE POP DUP1 MLOAD SWAP1 PUSH1 0x20 ADD KECCAK256 DUP2 EQ ISZERO DUP1 ISZERO PUSH2 0x5CA JUMPI POP PUSH1 0x40 MLOAD DUP1 PUSH1 0x40 ADD PUSH1 0x40 MSTORE DUP1 PUSH1 0x4 DUP2 MSTORE PUSH1 0x20 ADD PUSH32 0x66616B6500000000000000000000000000000000000000000000000000000000 DUP2 MSTORE POP DUP1 MLOAD SWAP1 PUSH1 0x20 ADD KECCAK256 DUP2 EQ ISZERO JUMPDEST ISZERO PUSH2 0x601 JUMPI PUSH1 0x40 MLOAD PUSH32 0xF525E32000000000000000000000000000000000000000000000000000000000 DUP2 MSTORE PUSH1 0x4 ADD PUSH1 0x40 MLOAD DUP1 SWAP2 SUB SWAP1 REVERT JUMPDEST PUSH1 0x40 MLOAD DUP1 PUSH1 0x40 ADD PUSH1 0x40 MSTORE DUP1 PUSH1 0x9 DUP2 MSTORE PUSH1 0x20 ADD PUSH32 0x636F6D706C657465640000000000000000000000000000000000000000000000 DUP2 MSTORE POP DUP1 MLOAD SWAP1 PUSH1 0x20 ADD KECCAK256 DUP2 EQ PUSH2 0x67F JUMPI PUSH1 0x40 MLOAD DUP1 PUSH1 0x40 ADD PUSH1 0x40 MSTORE DUP1 PUSH1 0xE DUP2 MSTORE PUSH1 0x20 ADD PUSH32 0x766F6C756E746565725F66616B65000000000000000000000000000000000000 DUP2 MSTORE POP PUSH2 0x6B6 JUMP JUMPDEST PUSH1 0x40 MLOAD DUP1 PUSH1 0x40 ADD PUSH1 0x40 MSTORE DUP1 PUSH1 0x13 DUP2 MSTORE PUSH1 0x20 ADD PUSH32 0x766F6C756E746565725F636F6D706C6574656400000000000000000000000000 DUP2 MSTORE POP JUMPDEST DUP3 PUSH1 0x7 ADD SWAP1 DUP2 PUSH2 0x6C6 SWAP2 SWAP1 PUSH2 0x2B45 JUMP JUMPDEST POP DUP4 DUP3 PUSH1 0xC ADD SWAP1 DUP2 PUSH2 0x6D8 SWAP2 SWAP1 PUSH2 0x2B45 JUMP JUMPDEST POP DUP3 DUP3 PUSH1 0xB ADD SWAP1 DUP2 PUSH2 0x6EA SWAP2 SWAP1 PUSH2 0x2B45 JUMP JUMPDEST POP TIMESTAMP DUP3 PUSH1 0x11 ADD DUP2 SWAP1 SSTORE POP DUP2 PUSH1 0x9 ADD PUSH1 0x0 SWAP1 SLOAD SWAP1 PUSH2 0x100 EXP SWAP1 DIV PUSH20 0xFFFFFFFFFFFFFFFFFFFFFFFFFFFFFFFFFFFFFFFF AND PUSH20 0xFFFFFFFFFFFFFFFFFFFFFFFFFFFFFFFFFFFFFFFF AND DUP6 PUSH32 0xE60C2A5C4BC6189B38FE13F0D09F808D1905762BBA86C646C1CF5769DC41BC7D DUP7 DUP7 TIMESTAMP PUSH1 0x40 MLOAD PUSH2 0x763 SWAP4 SWAP3 SWAP2 SWAP1 PUSH2 0x2C61 JUMP JUMPDEST PUSH1 0x40 MLOAD DUP1 SWAP2 SUB SWAP1 LOG3 POP POP POP POP POP JUMP JUMPDEST PUSH1 0x3 PUSH1 0x20 MSTORE DUP1 PUSH1 0x0 MSTORE PUSH1 0x40 PUSH1 0x0 KECCAK256 PUSH1 0x0 SWAP2 POP SLOAD SWAP1 PUSH2 0x100 EXP SWAP1 DIV PUSH1 0xFF AND DUP2 JUMP JUMPDEST PUSH1 0x0 DUP1 SLOAD SWAP1 PUSH2 0x100 EXP SWAP1 DIV PUSH20 0xFFFFFFFFFFFFFFFFFFFFFFFFFFFFFFFFFFFFFFFF AND PUSH20 0xFFFFFFFFFFFFFFFFFFFFFFFFFFFFFFFFFFFFFFFF AND CALLER PUSH20 0xFFFFFFFFFFFFFFFFFFFFFFFFFFFFFFFFFFFFFFFF AND EQ PUSH2 0x817 JUMPI PUSH1 0x40 MLOAD PUSH32 0x6DB2465F00000000000000000000000000000000000000000000000000000000 DUP2 MSTORE PUSH1 0x4 ADD PUSH1 0x40 MLOAD DUP1 SWAP2 SUB SWAP1 REVERT JUMPDEST PUSH1 0x3 PUSH1 0x0 DUP9 DUP2 MSTORE PUSH1 0x20 ADD SWAP1 DUP2 MSTORE PUSH1 0x20 ADD PUSH1 0x0 KECCAK256 PUSH1 0x0 SWAP1 SLOAD SWAP1 PUSH2 0x100 EXP SWAP1 DIV PUSH1 0xFF AND ISZERO PUSH2 0x86F JUMPI PUSH1 0x40 MLOAD PUSH32 0x8CD7D72400000000000000000000000000000000000000000000000000000000 DUP2 MSTORE PUSH1 0x4 ADD PUSH1 0x40 MLOAD DUP1 SWAP2 SUB SWAP1 REVERT JUMPDEST PUSH1 0x40 MLOAD DUP1 PUSH2 0x2A0 ADD PUSH1 0x40 MSTORE DUP1 DUP9 DUP2 MSTORE PUSH1 0x20 ADD DUP8 DUP2 MSTORE PUSH1 0x20 ADD DUP7 PUSH20 0xFFFFFFFFFFFFFFFFFFFFFFFFFFFFFFFFFFFFFFFF AND DUP2 MSTORE PUSH1 0x20 ADD DUP6 DUP2 MSTORE PUSH1 0x20 ADD DUP5 DUP2 MSTORE PUSH1 0x20 ADD DUP4 DUP2 MSTORE PUSH1 0x20 ADD DUP3 ISZERO ISZERO DUP2 MSTORE PUSH1 0x20 ADD PUSH1 0x40 MLOAD DUP1 PUSH1 0x40 ADD PUSH1 0x40 MSTORE DUP1 PUSH1 0x7 DUP2 MSTORE PUSH1 0x20 ADD PUSH32 0x70656E64696E6700000000000000000000000000000000000000000000000000 DUP2 MSTORE POP DUP2 MSTORE PUSH1 0x20 ADD PUSH1 0x40 MLOAD DUP1 PUSH1 0x20 ADD PUSH1 0x40 MSTORE DUP1 PUSH1 0x0 DUP2 MSTORE POP DUP2 MSTORE PUSH1 0x20 ADD PUSH1 0x0 PUSH20 0xFFFFFFFFFFFFFFFFFFFFFFFFFFFFFFFFFFFFFFFF AND DUP2 MSTORE PUSH1 0x20 ADD PUSH1 0x40 MLOAD DUP1 PUSH1 0x20 ADD PUSH1 0x40 MSTORE DUP1 PUSH1 0x0 DUP2 MSTORE POP DUP2 MSTORE PUSH1 0x20 ADD PUSH1 0x40 MLOAD DUP1 PUSH1 0x20 ADD PUSH1 0x40 MSTORE DUP1 PUSH1 0x0 DUP2 MSTORE POP DUP2 MSTORE PUSH1 0x20 ADD PUSH1 0x40 MLOAD DUP1 PUSH1 0x20 ADD PUSH1 0x40 MSTORE DUP1 PUSH1 0x0 DUP2 MSTORE POP DUP2 MSTORE PUSH1 0x20 ADD PUSH1 0x40 MLOAD DUP1 PUSH1 0x20 ADD PUSH1 0x40 MSTORE DUP1 PUSH1 0x0 DUP2 MSTORE POP DUP2 MSTORE PUSH1 0x20 ADD PUSH1 0x40 MLOAD DUP1 PUSH1 0x20 ADD PUSH1 0x40 MSTORE DUP1 PUSH1 0x0 DUP2 MSTORE POP DUP2 MSTORE PUSH1 0x20 ADD TIMESTAMP DUP2 MSTORE PUSH1 0x20 ADD PUSH1 0x0 DUP2 MSTORE PUSH1 0x20 ADD PUSH1 0x0 DUP2 MSTORE PUSH1 0x20 ADD PUSH1 0x0 DUP2 MSTORE PUSH1 0x20 ADD PUSH1 0x0 DUP2 MSTORE PUSH1 0x20 ADD PUSH1 0x0 DUP2 MSTORE POP PUSH1 0x2 PUSH1 0x0 DUP10 DUP2 MSTORE PUSH1 0x20 ADD SWAP1 DUP2 MSTORE PUSH1 0x20 ADD PUSH1 0x0 KECCAK256 PUSH1 0x0 DUP3 ADD MLOAD DUP2 PUSH1 0x0 ADD SSTORE PUSH1 0x20 DUP3 ADD MLOAD DUP2 PUSH1 0x1 ADD SWAP1 DUP2 PUSH2 0x9EC SWAP2 SWAP1 PUSH2 0x2B45 JUMP JUMPDEST POP PUSH1 0x40 DUP3 ADD MLOAD DUP2 PUSH1 0x2 ADD PUSH1 0x0 PUSH2 0x100 EXP DUP2 SLOAD DUP2 PUSH20 0xFFFFFFFFFFFFFFFFFFFFFFFFFFFFFFFFFFFFFFFF MUL NOT AND SWAP1 DUP4 PUSH20 0xFFFFFFFFFFFFFFFFFFFFFFFFFFFFFFFFFFFFFFFF AND MUL OR SWAP1 SSTORE POP PUSH1 0x60 DUP3 ADD MLOAD DUP2 PUSH1 0x3 ADD SWAP1 DUP2 PUSH2 0xA49 SWAP2 SWAP1 PUSH2 0x2B45 JUMP JUMPDEST POP PUSH1 0x80 DUP3 ADD MLOAD DUP2 PUSH1 0x4 ADD SWAP1 DUP2 PUSH2 0xA5F SWAP2 SWAP1 PUSH2 0x2B45 JUMP JUMPDEST POP PUSH1 0xA0 DUP3 ADD MLOAD DUP2 PUSH1 0x5 ADD SWAP1 DUP2 PUSH2 0xA75 SWAP2 SWAP1 PUSH2 0x2B45 JUMP JUMPDEST POP PUSH1 0xC0 DUP3 ADD MLOAD DUP2 PUSH1 0x6 ADD PUSH1 0x0 PUSH2 0x100 EXP DUP2 SLOAD DUP2 PUSH1 0xFF MUL NOT AND SWAP1 DUP4 ISZERO ISZERO MUL OR SWAP1 SSTORE POP PUSH1 0xE0 DUP3 ADD MLOAD DUP2 PUSH1 0x7 ADD SWAP1 DUP2 PUSH2 0xAAB SWAP2 SWAP1 PUSH2 0x2B45 JUMP JUMPDEST POP PUSH2 0x100 DUP3 ADD MLOAD DUP2 PUSH1 0x8 ADD SWAP1 DUP2 PUSH2 0xAC2 SWAP2 SWAP1 PUSH2 0x2B45 JUMP JUMPDEST POP PUSH2 0x120 DUP3 ADD MLOAD DUP2 PUSH1 0x9 ADD PUSH1 0x0 PUSH2 0x100 EXP DUP2 SLOAD DUP2 PUSH20 0xFFFFFFFFFFFFFFFFFFFFFFFFFFFFFFFFFFFFFFFF MUL NOT AND SWAP1 DUP4 PUSH20 0xFFFFFFFFFFFFFFFFFFFFFFFFFFFFFFFFFFFFFFFF AND MUL OR SWAP1 SSTORE POP PUSH2 0x140 DUP3 ADD MLOAD DUP2 PUSH1 0xA ADD SWAP1 DUP2 PUSH2 0xB21 SWAP2 SWAP1 PUSH2 0x2B45 JUMP JUMPDEST POP PUSH2 0x160 DUP3 ADD MLOAD DUP2 PUSH1 0xB ADD SWAP1 DUP2 PUSH2 0xB38 SWAP2 SWAP1 PUSH2 0x2B45 JUMP JUMPDEST POP PUSH2 0x180 DUP3 ADD MLOAD DUP2 PUSH1 0xC ADD SWAP1 DUP2 PUSH2 0xB4F SWAP2 SWAP1 PUSH2 0x2B45 JUMP JUMPDEST POP PUSH2 0x1A0 DUP3 ADD MLOAD DUP2 PUSH1 0xD ADD SWAP1 DUP2 PUSH2 0xB66 SWAP2 SWAP1 PUSH2 0x2B45 JUMP JUMPDEST POP PUSH2 0x1C0 DUP3 ADD MLOAD DUP2 PUSH1 0xE ADD SWAP1 DUP2 PUSH2 0xB7D SWAP2 SWAP1 PUSH2 0x2B45 JUMP JUMPDEST POP PUSH2 0x1E0 DUP3 ADD MLOAD DUP2 PUSH1 0xF ADD SSTORE PUSH2 0x200 DUP3 ADD MLOAD DUP2 PUSH1 0x10 ADD SSTORE PUSH2 0x220 DUP3 ADD MLOAD DUP2 PUSH1 0x11 ADD SSTORE PUSH2 0x240 DUP3 ADD MLOAD DUP2 PUSH1 0x12 ADD SSTORE PUSH2 0x260 DUP3 ADD MLOAD DUP2 PUSH1 0x13 ADD SSTORE PUSH2 0x280 DUP3 ADD MLOAD DUP2 PUSH1 0x14 ADD SSTORE SWAP1 POP POP PUSH1 0x1 PUSH1 0x3 PUSH1 0x0 DUP10 DUP2 MSTORE PUSH1 0x20 ADD SWAP1 DUP2 MSTORE PUSH1 0x20 ADD PUSH1 0x0 KECCAK256 PUSH1 0x0 PUSH2 0x100 EXP DUP2 SLOAD DUP2 PUSH1 0xFF MUL NOT AND SWAP1 DUP4 ISZERO ISZERO MUL OR SWAP1 SSTORE POP DUP5 PUSH20 0xFFFFFFFFFFFFFFFFFFFFFFFFFFFFFFFFFFFFFFFF AND DUP8 PUSH32 0x6F4442F567AF7EE7920EE939EFA1C0730FD7D46D2869B986D006C82C76D6C5BE DUP9 DUP7 DUP7 TIMESTAMP PUSH1 0x40 MLOAD PUSH2 0xC3C SWAP5 SWAP4 SWAP3 SWAP2 SWAP1 PUSH2 0x2CA6 JUMP JUMPDEST PUSH1 0x40 MLOAD DUP1 SWAP2 SUB SWAP1 LOG3 POP POP POP POP POP POP POP JUMP JUMPDEST PUSH1 0x0 DUP1 SLOAD SWAP1 PUSH2 0x100 EXP SWAP1 DIV PUSH20 0xFFFFFFFFFFFFFFFFFFFFFFFFFFFFFFFFFFFFFFFF AND PUSH20 0xFFFFFFFFFFFFFFFFFFFFFFFFFFFFFFFFFFFFFFFF AND CALLER PUSH20 0xFFFFFFFFFFFFFFFFFFFFFFFFFFFFFFFFFFFFFFFF AND EQ PUSH2 0xCD2 JUMPI PUSH1 0x40 MLOAD PUSH32 0x6DB2465F00000000000000000000000000000000000000000000000000000000 DUP2 MSTORE PUSH1 0x4 ADD PUSH1 0x40 MLOAD DUP1 SWAP2 SUB SWAP1 REVERT JUMPDEST PUSH1 0x3 PUSH1 0x0 DUP6 DUP2 MSTORE PUSH1 0x20 ADD SWAP1 DUP2 MSTORE PUSH1 0x20 ADD PUSH1 0x0 KECCAK256 PUSH1 0x0 SWAP1 SLOAD SWAP1 PUSH2 0x100 EXP SWAP1 DIV PUSH1 0xFF AND PUSH2 0xD29 JUMPI PUSH1 0x40 MLOAD PUSH32 0xCA2A541A00000000000000000000000000000000000000000000000000000000 DUP2 MSTORE PUSH1 0x4 ADD PUSH1 0x40 MLOAD DUP1 SWAP2 SUB SWAP1 REVERT JUMPDEST PUSH1 0x0 PUSH1 0x2 PUSH1 0x0 DUP7 DUP2 MSTORE PUSH1 0x20 ADD SWAP1 DUP2 MSTORE PUSH1 0x20 ADD PUSH1 0x0 KECCAK256 SWAP1 POP PUSH1 0x0 DUP2 PUSH1 0x12 ADD SLOAD EQ PUSH2 0xD7E JUMPI PUSH1 0x40 MLOAD PUSH32 0xCDD41A0C00000000000000000000000000000000000000000000000000000000 DUP2 MSTORE PUSH1 0x4 ADD PUSH1 0x40 MLOAD DUP1 SWAP2 SUB SWAP1 REVERT JUMPDEST PUSH1 0x40 MLOAD DUP1 PUSH1 0x40 ADD PUSH1 0x40 MSTORE DUP1 PUSH1 0x8 DUP2 MSTORE PUSH1 0x20 ADD PUSH32 0x61737369676E6564000000000000000000000000000000000000000000000000 DUP2 MSTORE POP DUP2 PUSH1 0x7 ADD SWAP1 DUP2 PUSH2 0xDC4 SWAP2 SWAP1 PUSH2 0x2B45 JUMP JUMPDEST POP DUP4 DUP2 PUSH1 0x8 ADD SWAP1 DUP2 PUSH2 0xDD6 SWAP2 SWAP1 PUSH2 0x2B45 JUMP JUMPDEST POP DUP2 DUP2 PUSH1 0x9 ADD PUSH1 0x0 PUSH2 0x100 EXP DUP2 SLOAD DUP2 PUSH20 0xFFFFFFFFFFFFFFFFFFFFFFFFFFFFFFFFFFFFFFFF MUL NOT AND SWAP1 DUP4 PUSH20 0xFFFFFFFFFFFFFFFFFFFFFFFFFFFFFFFFFFFFFFFF AND MUL OR SWAP1 SSTORE POP DUP3 DUP2 PUSH1 0xA ADD SWAP1 DUP2 PUSH2 0xE2B SWAP2 SWAP1 PUSH2 0x2B45 JUMP JUMPDEST POP TIMESTAMP DUP2 PUSH1 0x10 ADD DUP2 SWAP1 SSTORE POP DUP2 PUSH20 0xFFFFFFFFFFFFFFFFFFFFFFFFFFFFFFFFFFFFFFFF AND DUP6 PUSH32 0x4DA86FEE71BC991E7F2C1CFB9B4D97F11D8B1140E0EB3C7405B4CB2B386AC89F DUP7 DUP7 TIMESTAMP PUSH1 0x40 MLOAD PUSH2 0xE80 SWAP4 SWAP3 SWAP2 SWAP1 PUSH2 0x2C61 JUMP JUMPDEST PUSH1 0x40 MLOAD DUP1 SWAP2 SUB SWAP1 LOG3 POP POP POP POP POP JUMP JUMPDEST PUSH1 0x0 DUP1 SLOAD SWAP1 PUSH2 0x100 EXP SWAP1 DIV PUSH20 0xFFFFFFFFFFFFFFFFFFFFFFFFFFFFFFFFFFFFFFFF AND DUP2 JUMP JUMPDEST PUSH1 0x0 PUSH1 0x4 PUSH1 0x0 DUP4 PUSH20 0xFFFFFFFFFFFFFFFFFFFFFFFFFFFFFFFFFFFFFFFF AND PUSH20 0xFFFFFFFFFFFFFFFFFFFFFFFFFFFFFFFFFFFFFFFF AND DUP2 MSTORE PUSH1 0x20 ADD SWAP1 DUP2 MSTORE PUSH1 0x20 ADD PUSH1 0x0 KECCAK256 SLOAD SWAP1 POP SWAP2 SWAP1 POP JUMP JUMPDEST PUSH1 0x4 PUSH1 0x20 MSTORE DUP1 PUSH1 0x0 MSTORE PUSH1 0x40 PUSH1 0x0 KECCAK256 PUSH1 0x0 SWAP2 POP SWAP1 POP SLOAD DUP2 JUMP JUMPDEST PUSH2 0xF1C PUSH2 0x1F44 JUMP JUMPDEST PUSH1 0x3 PUSH1 0x0 DUP4 DUP2 MSTORE PUSH1 0x20 ADD SWAP1 DUP2 MSTORE PUSH1 0x20 ADD PUSH1 0x0 KECCAK256 PUSH1 0x0 SWAP1 SLOAD SWAP1 PUSH2 0x100 EXP SWAP1 DIV PUSH1 0xFF AND PUSH2 0xF73 JUMPI PUSH1 0x40 MLOAD PUSH32 0xCA2A541A00000000000000000000000000000000000000000000000000000000 DUP2 MSTORE PUSH1 0x4 ADD PUSH1 0x40 MLOAD DUP1 SWAP2 SUB SWAP1 REVERT JUMPDEST PUSH1 0x2 PUSH1 0x0 DUP4 DUP2 MSTORE PUSH1 0x20 ADD SWAP1 DUP2 MSTORE PUSH1 0x20 ADD PUSH1 0x0 KECCAK256 PUSH1 0x40 MLOAD DUP1 PUSH2 0x2A0 ADD PUSH1 0x40 MSTORE SWAP1 DUP2 PUSH1 0x0 DUP3 ADD SLOAD DUP2 MSTORE PUSH1 0x20 ADD PUSH1 0x1 DUP3 ADD DUP1 SLOAD PUSH2 0xFAC SWAP1 PUSH2 0x2968 JUMP JUMPDEST DUP1 PUSH1 0x1F ADD PUSH1 0x20 DUP1 SWAP2 DIV MUL PUSH1 0x20 ADD PUSH1 0x40 MLOAD SWAP1 DUP2 ADD PUSH1 0x40 MSTORE DUP1 SWAP3 SWAP2 SWAP1 DUP2 DUP2 MSTORE PUSH1 0x20 ADD DUP3 DUP1 SLOAD PUSH2 0xFD8 SWAP1 PUSH2 0x2968 JUMP JUMPDEST DUP1 ISZERO PUSH2 0x1025 JUMPI DUP1 PUSH1 0x1F LT PUSH2 0xFFA JUMPI PUSH2 0x100 DUP1 DUP4 SLOAD DIV MUL DUP4 MSTORE SWAP2 PUSH1 0x20 ADD SWAP2 PUSH2 0x1025 JUMP JUMPDEST DUP3 ADD SWAP2 SWAP1 PUSH1 0x0 MSTORE PUSH1 0x20 PUSH1 0x0 KECCAK256 SWAP1 JUMPDEST DUP2 SLOAD DUP2 MSTORE SWAP1 PUSH1 0x1 ADD SWAP1 PUSH1 0x20 ADD DUP1 DUP4 GT PUSH2 0x1008 JUMPI DUP3 SWAP1 SUB PUSH1 0x1F AND DUP3 ADD SWAP2 JUMPDEST POP POP POP POP POP DUP2 MSTORE PUSH1 0x20 ADD PUSH1 0x2 DUP3 ADD PUSH1 0x0 SWAP1 SLOAD SWAP1 PUSH2 0x100 EXP SWAP1 DIV PUSH20 0xFFFFFFFFFFFFFFFFFFFFFFFFFFFFFFFFFFFFFFFF AND PUSH20 0xFFFFFFFFFFFFFFFFFFFFFFFFFFFFFFFFFFFFFFFF AND PUSH20 0xFFFFFFFFFFFFFFFFFFFFFFFFFFFFFFFFFFFFFFFF AND DUP2 MSTORE PUSH1 0x20 ADD PUSH1 0x3 DUP3 ADD DUP1 SLOAD PUSH2 0x1094 SWAP1 PUSH2 0x2968 JUMP JUMPDEST DUP1 PUSH1 0x1F ADD PUSH1 0x20 DUP1 SWAP2 DIV MUL PUSH1 0x20 ADD PUSH1 0x40 MLOAD SWAP1 DUP2 ADD PUSH1 0x40 MSTORE DUP1 SWAP3 SWAP2 SWAP1 DUP2 DUP2 MSTORE PUSH1 0x20 ADD DUP3 DUP1 SLOAD PUSH2 0x10C0 SWAP1 PUSH2 0x2968 JUMP JUMPDEST DUP1 ISZERO PUSH2 0x110D JUMPI DUP1 PUSH1 0x1F LT PUSH2 0x10E2 JUMPI PUSH2 0x100 DUP1 DUP4 SLOAD DIV MUL DUP4 MSTORE SWAP2 PUSH1 0x20 ADD SWAP2 PUSH2 0x110D JUMP JUMPDEST DUP3 ADD SWAP2 SWAP1 PUSH1 0x0 MSTORE PUSH1 0x20 PUSH1 0x0 KECCAK256 SWAP1 JUMPDEST DUP2 SLOAD DUP2 MSTORE SWAP1 PUSH1 0x1 ADD SWAP1 PUSH1 0x20 ADD DUP1 DUP4 GT PUSH2 0x10F0 JUMPI DUP3 SWAP1 SUB PUSH1 0x1F AND DUP3 ADD SWAP2 JUMPDEST POP POP POP POP POP DUP2 MSTORE PUSH1 0x20 ADD PUSH1 0x4 DUP3 ADD DUP1 SLOAD PUSH2 0x1126 SWAP1 PUSH2 0x2968 JUMP JUMPDEST DUP1 PUSH1 0x1F ADD PUSH1 0x20 DUP1 SWAP2 DIV MUL PUSH1 0x20 ADD PUSH1 0x40 MLOAD SWAP1 DUP2 ADD PUSH1 0x40 MSTORE DUP1 SWAP3 SWAP2 SWAP1 DUP2 DUP2 MSTORE PUSH1 0x20 ADD DUP3 DUP1 SLOAD PUSH2 0x1152 SWAP1 PUSH2 0x2968 JUMP JUMPDEST DUP1 ISZERO PUSH2 0x119F JUMPI DUP1 PUSH1 0x1F LT PUSH2 0x1174 JUMPI PUSH2 0x100 DUP1 DUP4 SLOAD DIV MUL DUP4 MSTORE SWAP2 PUSH1 0x20 ADD SWAP2 PUSH2 0x119F JUMP JUMPDEST DUP3 ADD SWAP2 SWAP1 PUSH1 0x0 MSTORE PUSH1 0x20 PUSH1 0x0 KECCAK256 SWAP1 JUMPDEST DUP2 SLOAD DUP2 MSTORE SWAP1 PUSH1 0x1 ADD SWAP1 PUSH1 0x20 ADD DUP1 DUP4 GT PUSH2 0x1182 JUMPI DUP3 SWAP1 SUB PUSH1 0x1F AND DUP3 ADD SWAP2 JUMPDEST POP POP POP POP POP DUP2 MSTORE PUSH1 0x20 ADD PUSH1 0x5 DUP3 ADD DUP1 SLOAD PUSH2 0x11B8 SWAP1 PUSH2 0x2968 JUMP JUMPDEST DUP1 PUSH1 0x1F ADD PUSH1 0x20 DUP1 SWAP2 DIV MUL PUSH1 0x20 ADD PUSH1 0x40 MLOAD SWAP1 DUP2 ADD PUSH1 0x40 MSTORE DUP1 SWAP3 SWAP2 SWAP1 DUP2 DUP2 MSTORE PUSH1 0x20 ADD DUP3 DUP1 SLOAD PUSH2 0x11E4 SWAP1 PUSH2 0x2968 JUMP JUMPDEST DUP1 ISZERO PUSH2 0x1231 JUMPI DUP1 PUSH1 0x1F LT PUSH2 0x1206 JUMPI PUSH2 0x100 DUP1 DUP4 SLOAD DIV MUL DUP4 MSTORE SWAP2 PUSH1 0x20 ADD SWAP2 PUSH2 0x1231 JUMP JUMPDEST DUP3 ADD SWAP2 SWAP1 PUSH1 0x0 MSTORE PUSH1 0x20 PUSH1 0x0 KECCAK256 SWAP1 JUMPDEST DUP2 SLOAD DUP2 MSTORE SWAP1 PUSH1 0x1 ADD SWAP1 PUSH1 0x20 ADD DUP1 DUP4 GT PUSH2 0x1214 JUMPI DUP3 SWAP1 SUB PUSH1 0x1F AND DUP3 ADD SWAP2 JUMPDEST POP POP POP POP POP DUP2 MSTORE PUSH1 0x20 ADD PUSH1 0x6 DUP3 ADD PUSH1 0x0 SWAP1 SLOAD SWAP1 PUSH2 0x100 EXP SWAP1 DIV PUSH1 0xFF AND ISZERO ISZERO ISZERO ISZERO DUP2 MSTORE PUSH1 0x20 ADD PUSH1 0x7 DUP3 ADD DUP1 SLOAD PUSH2 0x1265 SWAP1 PUSH2 0x2968 JUMP JUMPDEST DUP1 PUSH1 0x1F ADD PUSH1 0x20 DUP1 SWAP2 DIV MUL PUSH1 0x20 ADD PUSH1 0x40 MLOAD SWAP1 DUP2 ADD PUSH1 0x40 MSTORE DUP1 SWAP3 SWAP2 SWAP1 DUP2 DUP2 MSTORE PUSH1 0x20 ADD DUP3 DUP1 SLOAD PUSH2 0x1291 SWAP1 PUSH2 0x2968 JUMP JUMPDEST DUP1 ISZERO PUSH2 0x12DE JUMPI DUP1 PUSH1 0x1F LT PUSH2 0x12B3 JUMPI PUSH2 0x100 DUP1 DUP4 SLOAD DIV MUL DUP4 MSTORE SWAP2 PUSH1 0x20 ADD SWAP2 PUSH2 0x12DE JUMP JUMPDEST DUP3 ADD SWAP2 SWAP1 PUSH1 0x0 MSTORE PUSH1 0x20 PUSH1 0x0 KECCAK256 SWAP1 JUMPDEST DUP2 SLOAD DUP2 MSTORE SWAP1 PUSH1 0x1 ADD SWAP1 PUSH1 0x20 ADD DUP1 DUP4 GT PUSH2 0x12C1 JUMPI DUP3 SWAP1 SUB PUSH1 0x1F AND DUP3 ADD SWAP2 JUMPDEST POP POP POP POP POP DUP2 MSTORE PUSH1 0x20 ADD PUSH1 0x8 DUP3 ADD DUP1 SLOAD PUSH2 0x12F7 SWAP1 PUSH2 0x2968 JUMP JUMPDEST DUP1 PUSH1 0x1F ADD PUSH1 0x20 DUP1 SWAP2 DIV MUL PUSH1 0x20 ADD PUSH1 0x40 MLOAD SWAP1 DUP2 ADD PUSH1 0x40 MSTORE DUP1 SWAP3 SWAP2 SWAP1 DUP2 DUP2 MSTORE PUSH1 0x20 ADD DUP3 DUP1 SLOAD PUSH2 0x1323 SWAP1 PUSH2 0x2968 JUMP JUMPDEST DUP1 ISZERO PUSH2 0x1370 JUMPI DUP1 PUSH1 0x1F LT PUSH2 0x1345 JUMPI PUSH2 0x100 DUP1 DUP4 SLOAD DIV MUL DUP4 MSTORE SWAP2 PUSH1 0x20 ADD SWAP2 PUSH2 0x1370 JUMP JUMPDEST DUP3 ADD SWAP2 SWAP1 PUSH1 0x0 MSTORE PUSH1 0x20 PUSH1 0x0 KECCAK256 SWAP1 JUMPDEST DUP2 SLOAD DUP2 MSTORE SWAP1 PUSH1 0x1 ADD SWAP1 PUSH1 0x20 ADD DUP1 DUP4 GT PUSH2 0x1353 JUMPI DUP3 SWAP1 SUB PUSH1 0x1F AND DUP3 ADD SWAP2 JUMPDEST POP POP POP POP POP DUP2 MSTORE PUSH1 0x20 ADD PUSH1 0x9 DUP3 ADD PUSH1 0x0 SWAP1 SLOAD SWAP1 PUSH2 0x100 EXP SWAP1 DIV PUSH20 0xFFFFFFFFFFFFFFFFFFFFFFFFFFFFFFFFFFFFFFFF AND PUSH20 0xFFFFFFFFFFFFFFFFFFFFFFFFFFFFFFFFFFFFFFFF AND PUSH20 0xFFFFFFFFFFFFFFFFFFFFFFFFFFFFFFFFFFFFFFFF AND DUP2 MSTORE PUSH1 0x20 ADD PUSH1 0xA DUP3 ADD DUP1 SLOAD PUSH2 0x13DF SWAP1 PUSH2 0x2968 JUMP JUMPDEST DUP1 PUSH1 0x1F ADD PUSH1 0x20 DUP1 SWAP2 DIV MUL PUSH1 0x20 ADD PUSH1 0x40 MLOAD SWAP1 DUP2 ADD PUSH1 0x40 MSTORE DUP1 SWAP3 SWAP2 SWAP1 DUP2 DUP2 MSTORE PUSH1 0x20 ADD DUP3 DUP1 SLOAD PUSH2 0x140B SWAP1 PUSH2 0x2968 JUMP JUMPDEST DUP1 ISZERO PUSH2 0x1458 JUMPI DUP1 PUSH1 0x1F LT PUSH2 0x142D JUMPI PUSH2 0x100 DUP1 DUP4 SLOAD DIV MUL DUP4 MSTORE SWAP2 PUSH1 0x20 ADD SWAP2 PUSH2 0x1458 JUMP JUMPDEST DUP3 ADD SWAP2 SWAP1 PUSH1 0x0 MSTORE PUSH1 0x20 PUSH1 0x0 KECCAK256 SWAP1 JUMPDEST DUP2 SLOAD DUP2 MSTORE SWAP1 PUSH1 0x1 ADD SWAP1 PUSH1 0x20 ADD DUP1 DUP4 GT PUSH2 0x143B JUMPI DUP3 SWAP1 SUB PUSH1 0x1F AND DUP3 ADD SWAP2 JUMPDEST POP POP POP POP POP DUP2 MSTORE PUSH1 0x20 ADD PUSH1 0xB DUP3 ADD DUP1 SLOAD PUSH2 0x1471 SWAP1 PUSH2 0x2968 JUMP JUMPDEST DUP1 PUSH1 0x1F ADD PUSH1 0x20 DUP1 SWAP2 DIV MUL PUSH1 0x20 ADD PUSH1 0x40 MLOAD SWAP1 DUP2 ADD PUSH1 0x40 MSTORE DUP1 SWAP3 SWAP2 SWAP1 DUP2 DUP2 MSTORE PUSH1 0x20 ADD DUP3 DUP1 SLOAD PUSH2 0x149D SWAP1 PUSH2 0x2968 JUMP JUMPDEST DUP1 ISZERO PUSH2 0x14EA JUMPI DUP1 PUSH1 0x1F LT PUSH2 0x14BF JUMPI PUSH2 0x100 DUP1 DUP4 SLOAD DIV MUL DUP4 MSTORE SWAP2 PUSH1 0x20 ADD SWAP2 PUSH2 0x14EA JUMP JUMPDEST DUP3 ADD SWAP2 SWAP1 PUSH1 0x0 MSTORE PUSH1 0x20 PUSH1 0x0 KECCAK256 SWAP1 JUMPDEST DUP2 SLOAD DUP2 MSTORE SWAP1 PUSH1 0x1 ADD SWAP1 PUSH1 0x20 ADD DUP1 DUP4 GT PUSH2 0x14CD JUMPI DUP3 SWAP1 SUB PUSH1 0x1F AND DUP3 ADD SWAP2 JUMPDEST POP POP POP POP POP DUP2 MSTORE PUSH1 0x20 ADD PUSH1 0xC DUP3 ADD DUP1 SLOAD PUSH2 0x1503 SWAP1 PUSH2 0x2968 JUMP JUMPDEST DUP1 PUSH1 0x1F ADD PUSH1 0x20 DUP1 SWAP2 DIV MUL PUSH1 0x20 ADD PUSH1 0x40 MLOAD SWAP1 DUP2 ADD PUSH1 0x40 MSTORE DUP1 SWAP3 SWAP2 SWAP1 DUP2 DUP2 MSTORE PUSH1 0x20 ADD DUP3 DUP1 SLOAD PUSH2 0x152F SWAP1 PUSH2 0x2968 JUMP JUMPDEST DUP1 ISZERO PUSH2 0x157C JUMPI DUP1 PUSH1 0x1F LT PUSH2 0x1551 JUMPI PUSH2 0x100 DUP1 DUP4 SLOAD DIV MUL DUP4 MSTORE SWAP2 PUSH1 0x20 ADD SWAP2 PUSH2 0x157C JUMP JUMPDEST DUP3 ADD SWAP2 SWAP1 PUSH1 0x0 MSTORE PUSH1 0x20 PUSH1 0x0 KECCAK256 SWAP1 JUMPDEST DUP2 SLOAD DUP2 MSTORE SWAP1 PUSH1 0x1 ADD SWAP1 PUSH1 0x20 ADD DUP1 DUP4 GT PUSH2 0x155F JUMPI DUP3 SWAP1 SUB PUSH1 0x1F AND DUP3 ADD SWAP2 JUMPDEST POP POP POP POP POP DUP2 MSTORE PUSH1 0x20 ADD PUSH1 0xD DUP3 ADD DUP1 SLOAD PUSH2 0x1595 SWAP1 PUSH2 0x2968 JUMP JUMPDEST DUP1 PUSH1 0x1F ADD PUSH1 0x20 DUP1 SWAP2 DIV MUL PUSH1 0x20 ADD PUSH1 0x40 MLOAD SWAP1 DUP2 ADD PUSH1 0x40 MSTORE DUP1 SWAP3 SWAP2 SWAP1 DUP2 DUP2 MSTORE PUSH1 0x20 ADD DUP3 DUP1 SLOAD PUSH2 0x15C1 SWAP1 PUSH2 0x2968 JUMP JUMPDEST DUP1 ISZERO PUSH2 0x160E JUMPI DUP1 PUSH1 0x1F LT PUSH2 0x15E3 JUMPI PUSH2 0x100 DUP1 DUP4 SLOAD DIV MUL DUP4 MSTORE SWAP2 PUSH1 0x20 ADD SWAP2 PUSH2 0x160E JUMP JUMPDEST DUP3 ADD SWAP2 SWAP1 PUSH1 0x0 MSTORE PUSH1 0x20 PUSH1 0x0 KECCAK256 SWAP1 JUMPDEST DUP2 SLOAD DUP2 MSTORE SWAP1 PUSH1 0x1 ADD SWAP1 PUSH1 0x20 ADD DUP1 DUP4 GT PUSH2 0x15F1 JUMPI DUP3 SWAP1 SUB PUSH1 0x1F AND DUP3 ADD SWAP2 JUMPDEST POP POP POP POP POP DUP2 MSTORE PUSH1 0x20 ADD PUSH1 0xE DUP3 ADD DUP1 SLOAD PUSH2 0x1627 SWAP1 PUSH2 0x2968 JUMP JUMPDEST DUP1 PUSH1 0x1F ADD PUSH1 0x20 DUP1 SWAP2 DIV MUL PUSH1 0x20 ADD PUSH1 0x40 MLOAD SWAP1 DUP2 ADD PUSH1 0x40 MSTORE DUP1 SWAP3 SWAP2 SWAP1 DUP2 DUP2 MSTORE PUSH1 0x20 ADD DUP3 DUP1 SLOAD PUSH2 0x1653 SWAP1 PUSH2 0x2968 JUMP JUMPDEST DUP1 ISZERO PUSH2 0x16A0 JUMPI DUP1 PUSH1 0x1F LT PUSH2 0x1675 JUMPI PUSH2 0x100 DUP1 DUP4 SLOAD DIV MUL DUP4 MSTORE SWAP2 PUSH1 0x20 ADD SWAP2 PUSH2 0x16A0 JUMP JUMPDEST DUP3 ADD SWAP2 SWAP1 PUSH1 0x0 MSTORE PUSH1 0x20 PUSH1 0x0 KECCAK256 SWAP1 JUMPDEST DUP2 SLOAD DUP2 MSTORE SWAP1 PUSH1 0x1 ADD SWAP1 PUSH1 0x20 ADD DUP1 DUP4 GT PUSH2 0x1683 JUMPI DUP3 SWAP1 SUB PUSH1 0x1F AND DUP3 ADD SWAP2 JUMPDEST POP POP POP POP POP DUP2 MSTORE PUSH1 0x20 ADD PUSH1 0xF DUP3 ADD SLOAD DUP2 MSTORE PUSH1 0x20 ADD PUSH1 0x10 DUP3 ADD SLOAD DUP2 MSTORE PUSH1 0x20 ADD PUSH1 0x11 DUP3 ADD SLOAD DUP2 MSTORE PUSH1 0x20 ADD PUSH1 0x12 DUP3 ADD SLOAD DUP2 MSTORE PUSH1 0x20 ADD PUSH1 0x13 DUP3 ADD SLOAD DUP2 MSTORE PUSH1 0x20 ADD PUSH1 0x14 DUP3 ADD SLOAD DUP2 MSTORE POP POP SWAP1 POP SWAP2 SWAP1 POP JUMP JUMPDEST PUSH1 0x0 DUP1 SLOAD SWAP1 PUSH2 0x100 EXP SWAP1 DIV PUSH20 0xFFFFFFFFFFFFFFFFFFFFFFFFFFFFFFFFFFFFFFFF AND PUSH20 0xFFFFFFFFFFFFFFFFFFFFFFFFFFFFFFFFFFFFFFFF AND CALLER PUSH20 0xFFFFFFFFFFFFFFFFFFFFFFFFFFFFFFFFFFFFFFFF AND EQ PUSH2 0x1771 JUMPI PUSH1 0x40 MLOAD PUSH32 0x6DB2465F00000000000000000000000000000000000000000000000000000000 DUP2 MSTORE PUSH1 0x4 ADD PUSH1 0x40 MLOAD DUP1 SWAP2 SUB SWAP1 REVERT JUMPDEST PUSH1 0x3 PUSH1 0x0 DUP6 DUP2 MSTORE PUSH1 0x20 ADD SWAP1 DUP2 MSTORE PUSH1 0x20 ADD PUSH1 0x0 KECCAK256 PUSH1 0x0 SWAP1 SLOAD SWAP1 PUSH2 0x100 EXP SWAP1 DIV PUSH1 0xFF AND PUSH2 0x17C8 JUMPI PUSH1 0x40 MLOAD PUSH32 0xCA2A541A00000000000000000000000000000000000000000000000000000000 DUP2 MSTORE PUSH1 0x4 ADD PUSH1 0x40 MLOAD DUP1 SWAP2 SUB SWAP1 REVERT JUMPDEST PUSH1 0x0 PUSH1 0x2 PUSH1 0x0 DUP7 DUP2 MSTORE PUSH1 0x20 ADD SWAP1 DUP2 MSTORE PUSH1 0x20 ADD PUSH1 0x0 KECCAK256 SWAP1 POP PUSH1 0x0 PUSH20 0xFFFFFFFFFFFFFFFFFFFFFFFFFFFFFFFFFFFFFFFF AND DUP2 PUSH1 0x9 ADD PUSH1 0x0 SWAP1 SLOAD SWAP1 PUSH2 0x100 EXP SWAP1 DIV PUSH20 0xFFFFFFFFFFFFFFFFFFFFFFFFFFFFFFFFFFFFFFFF AND PUSH20 0xFFFFFFFFFFFFFFFFFFFFFFFFFFFFFFFFFFFFFFFF AND SUB PUSH2 0x1869 JUMPI PUSH1 0x40 MLOAD PUSH32 0x39DEC4DB00000000000000000000000000000000000000000000000000000000 DUP2 MSTORE PUSH1 0x4 ADD PUSH1 0x40 MLOAD DUP1 SWAP2 SUB SWAP1 REVERT JUMPDEST PUSH1 0x0 DUP2 PUSH1 0x11 ADD SLOAD SUB PUSH2 0x18A7 JUMPI PUSH1 0x40 MLOAD PUSH32 0x2E6F50C700000000000000000000000000000000000000000000000000000000 DUP2 MSTORE PUSH1 0x4 ADD PUSH1 0x40 MLOAD DUP1 SWAP2 SUB SWAP1 REVERT JUMPDEST PUSH1 0x0 DUP2 PUSH1 0x12 ADD SLOAD EQ PUSH2 0x18E5 JUMPI PUSH1 0x40 MLOAD PUSH32 0xCDD41A0C00000000000000000000000000000000000000000000000000000000 DUP2 MSTORE PUSH1 0x4 ADD PUSH1 0x40 MLOAD DUP1 SWAP2 SUB SWAP1 REVERT JUMPDEST PUSH1 0x0 DUP5 DUP1 MLOAD SWAP1 PUSH1 0x20 ADD KECCAK256 SWAP1 POP PUSH1 0x0 DUP3 PUSH1 0xC ADD PUSH1 0x40 MLOAD PUSH2 0x1904 SWAP2 SWAP1 PUSH2 0x2DA3 JUMP JUMPDEST PUSH1 0x40 MLOAD DUP1 SWAP2 SUB SWAP1 KECCAK256 SWAP1 POP PUSH1 0x40 MLOAD DUP1 PUSH1 0x40 ADD PUSH1 0x40 MSTORE DUP1 PUSH1 0x9 DUP2 MSTORE PUSH1 0x20 ADD PUSH32 0x636F6D706C657465640000000000000000000000000000000000000000000000 DUP2 MSTORE POP DUP1 MLOAD SWAP1 PUSH1 0x20 ADD KECCAK256 DUP3 EQ ISZERO DUP1 ISZERO PUSH2 0x1996 JUMPI POP PUSH1 0x40 MLOAD DUP1 PUSH1 0x40 ADD PUSH1 0x40 MSTORE DUP1 PUSH1 0x4 DUP2 MSTORE PUSH1 0x20 ADD PUSH32 0x66616B6500000000000000000000000000000000000000000000000000000000 DUP2 MSTORE POP DUP1 MLOAD SWAP1 PUSH1 0x20 ADD KECCAK256 DUP3 EQ ISZERO JUMPDEST DUP1 ISZERO PUSH2 0x19DE JUMPI POP PUSH1 0x40 MLOAD DUP1 PUSH1 0x40 ADD PUSH1 0x40 MSTORE DUP1 PUSH1 0x8 DUP2 MSTORE PUSH1 0x20 ADD PUSH32 0x6469737075746564000000000000000000000000000000000000000000000000 DUP2 MSTORE POP DUP1 MLOAD SWAP1 PUSH1 0x20 ADD KECCAK256 DUP3 EQ ISZERO JUMPDEST ISZERO PUSH2 0x1A15 JUMPI PUSH1 0x40 MLOAD PUSH32 0xF525E32000000000000000000000000000000000000000000000000000000000 DUP2 MSTORE PUSH1 0x4 ADD PUSH1 0x40 MLOAD DUP1 SWAP2 SUB SWAP1 REVERT JUMPDEST PUSH1 0x40 MLOAD DUP1 PUSH1 0x40 ADD PUSH1 0x40 MSTORE DUP1 PUSH1 0x9 DUP2 MSTORE PUSH1 0x20 ADD PUSH32 0x636F6D706C657465640000000000000000000000000000000000000000000000 DUP2 MSTORE POP DUP1 MLOAD SWAP1 PUSH1 0x20 ADD KECCAK256 DUP3 SUB PUSH2 0x1C66 JUMPI PUSH1 0x40 MLOAD DUP1 PUSH1 0x40 ADD PUSH1 0x40 MSTORE DUP1 PUSH1 0x9 DUP2 MSTORE PUSH1 0x20 ADD PUSH32 0x636F6D706C657465640000000000000000000000000000000000000000000000 DUP2 MSTORE POP DUP1 MLOAD SWAP1 PUSH1 0x20 ADD KECCAK256 DUP2 EQ PUSH2 0x1ACD JUMPI PUSH1 0x40 MLOAD PUSH32 0xD73595AE00000000000000000000000000000000000000000000000000000000 DUP2 MSTORE PUSH1 0x4 ADD PUSH1 0x40 MLOAD DUP1 SWAP2 SUB SWAP1 REVERT JUMPDEST PUSH1 0x1 SLOAD CALLVALUE EQ PUSH2 0x1B08 JUMPI PUSH1 0x40 MLOAD PUSH32 0x3853986500000000000000000000000000000000000000000000000000000000 DUP2 MSTORE PUSH1 0x4 ADD PUSH1 0x40 MLOAD DUP1 SWAP2 SUB SWAP1 REVERT JUMPDEST PUSH1 0x0 DUP4 PUSH1 0x9 ADD PUSH1 0x0 SWAP1 SLOAD SWAP1 PUSH2 0x100 EXP SWAP1 DIV PUSH20 0xFFFFFFFFFFFFFFFFFFFFFFFFFFFFFFFFFFFFFFFF AND PUSH20 0xFFFFFFFFFFFFFFFFFFFFFFFFFFFFFFFFFFFFFFFF AND PUSH1 0x1 SLOAD PUSH1 0x40 MLOAD PUSH2 0x1B54 SWAP1 PUSH2 0x2DE0 JUMP JUMPDEST PUSH1 0x0 PUSH1 0x40 MLOAD DUP1 DUP4 SUB DUP2 DUP6 DUP8 GAS CALL SWAP3 POP POP POP RETURNDATASIZE DUP1 PUSH1 0x0 DUP2 EQ PUSH2 0x1B91 JUMPI PUSH1 0x40 MLOAD SWAP2 POP PUSH1 0x1F NOT PUSH1 0x3F RETURNDATASIZE ADD AND DUP3 ADD PUSH1 0x40 MSTORE RETURNDATASIZE DUP3 MSTORE RETURNDATASIZE PUSH1 0x0 PUSH1 0x20 DUP5 ADD RETURNDATACOPY PUSH2 0x1B96 JUMP JUMPDEST PUSH1 0x60 SWAP2 POP JUMPDEST POP POP SWAP1 POP DUP1 PUSH2 0x1BD1 JUMPI PUSH1 0x40 MLOAD PUSH32 0x78ECF41000000000000000000000000000000000000000000000000000000000 DUP2 MSTORE PUSH1 0x4 ADD PUSH1 0x40 MLOAD DUP1 SWAP2 SUB SWAP1 REVERT JUMPDEST PUSH1 0x1 SLOAD DUP5 PUSH1 0x13 ADD DUP2 SWAP1 SSTORE POP TIMESTAMP DUP5 PUSH1 0x14 ADD DUP2 SWAP1 SSTORE POP PUSH1 0x1 PUSH1 0x4 PUSH1 0x0 DUP7 PUSH1 0x9 ADD PUSH1 0x0 SWAP1 SLOAD SWAP1 PUSH2 0x100 EXP SWAP1 DIV PUSH20 0xFFFFFFFFFFFFFFFFFFFFFFFFFFFFFFFFFFFFFFFF AND PUSH20 0xFFFFFFFFFFFFFFFFFFFFFFFFFFFFFFFFFFFFFFFF AND PUSH20 0xFFFFFFFFFFFFFFFFFFFFFFFFFFFFFFFFFFFFFFFF AND DUP2 MSTORE PUSH1 0x20 ADD SWAP1 DUP2 MSTORE PUSH1 0x20 ADD PUSH1 0x0 KECCAK256 PUSH1 0x0 DUP3 DUP3 SLOAD PUSH2 0x1C59 SWAP2 SWAP1 PUSH2 0x2E24 JUMP JUMPDEST SWAP3 POP POP DUP2 SWAP1 SSTORE POP POP PUSH2 0x1E14 JUMP JUMPDEST PUSH1 0x40 MLOAD DUP1 PUSH1 0x40 ADD PUSH1 0x40 MSTORE DUP1 PUSH1 0x4 DUP2 MSTORE PUSH1 0x20 ADD PUSH32 0x66616B6500000000000000000000000000000000000000000000000000000000 DUP2 MSTORE POP DUP1 MLOAD SWAP1 PUSH1 0x20 ADD KECCAK256 DUP3 SUB PUSH2 0x1DD8 JUMPI PUSH1 0x40 MLOAD DUP1 PUSH1 0x40 ADD PUSH1 0x40 MSTORE DUP1 PUSH1 0x4 DUP2 MSTORE PUSH1 0x20 ADD PUSH32 0x66616B6500000000000000000000000000000000000000000000000000000000 DUP2 MSTORE POP DUP1 MLOAD SWAP1 PUSH1 0x20 ADD KECCAK256 DUP2 EQ PUSH2 0x1D1E JUMPI PUSH1 0x40 MLOAD PUSH32 0xD73595AE00000000000000000000000000000000000000000000000000000000 DUP2 MSTORE PUSH1 0x4 ADD PUSH1 0x40 MLOAD DUP1 SWAP2 SUB SWAP1 REVERT JUMPDEST PUSH1 0x0 CALLVALUE EQ PUSH2 0x1D58 JUMPI PUSH1 0x40 MLOAD PUSH32 0x3853986500000000000000000000000000000000000000000000000000000000 DUP2 MSTORE PUSH1 0x4 ADD PUSH1 0x40 MLOAD DUP1 SWAP2 SUB SWAP1 REVERT JUMPDEST PUSH1 0x1 PUSH1 0x4 PUSH1 0x0 DUP6 PUSH1 0x9 ADD PUSH1 0x0 SWAP1 SLOAD SWAP1 PUSH2 0x100 EXP SWAP1 DIV PUSH20 0xFFFFFFFFFFFFFFFFFFFFFFFFFFFFFFFFFFFFFFFF AND PUSH20 0xFFFFFFFFFFFFFFFFFFFFFFFFFFFFFFFFFFFFFFFF AND PUSH20 0xFFFFFFFFFFFFFFFFFFFFFFFFFFFFFFFFFFFFFFFF AND DUP2 MSTORE PUSH1 0x20 ADD SWAP1 DUP2 MSTORE PUSH1 0x20 ADD PUSH1 0x0 KECCAK256 PUSH1 0x0 DUP3 DUP3 SLOAD PUSH2 0x1DCC SWAP2 SWAP1 PUSH2 0x2E68 JUMP JUMPDEST SWAP3 POP POP DUP2 SWAP1 SSTORE POP PUSH2 0x1E13 JUMP JUMPDEST PUSH1 0x0 CALLVALUE EQ PUSH2 0x1E12 JUMPI PUSH1 0x40 MLOAD PUSH32 0x3853986500000000000000000000000000000000000000000000000000000000 DUP2 MSTORE PUSH1 0x4 ADD PUSH1 0x40 MLOAD DUP1 SWAP2 SUB SWAP1 REVERT JUMPDEST JUMPDEST JUMPDEST DUP6 DUP4 PUSH1 0x7 ADD SWAP1 DUP2 PUSH2 0x1E25 SWAP2 SWAP1 PUSH2 0x2B45 JUMP JUMPDEST POP DUP5 DUP4 PUSH1 0xD ADD SWAP1 DUP2 PUSH2 0x1E37 SWAP2 SWAP1 PUSH2 0x2B45 JUMP JUMPDEST POP DUP4 DUP4 PUSH1 0xE ADD SWAP1 DUP2 PUSH2 0x1E49 SWAP2 SWAP1 PUSH2 0x2B45 JUMP JUMPDEST POP TIMESTAMP DUP4 PUSH1 0x12 ADD DUP2 SWAP1 SSTORE POP DUP3 PUSH1 0x9 ADD PUSH1 0x0 SWAP1 SLOAD SWAP1 PUSH2 0x100 EXP SWAP1 DIV PUSH20 0xFFFFFFFFFFFFFFFFFFFFFFFFFFFFFFFFFFFFFFFF AND PUSH20 0xFFFFFFFFFFFFFFFFFFFFFFFFFFFFFFFFFFFFFFFF AND DUP8 PUSH32 0x841642661DC21F155759D663620EBB0EBFF6408445EE5854C1854FCC60D52F40 DUP9 DUP9 PUSH1 0x4 PUSH1 0x0 DUP10 PUSH1 0x9 ADD PUSH1 0x0 SWAP1 SLOAD SWAP1 PUSH2 0x100 EXP SWAP1 DIV PUSH20 0xFFFFFFFFFFFFFFFFFFFFFFFFFFFFFFFFFFFFFFFF AND PUSH20 0xFFFFFFFFFFFFFFFFFFFFFFFFFFFFFFFFFFFFFFFF AND PUSH20 0xFFFFFFFFFFFFFFFFFFFFFFFFFFFFFFFFFFFFFFFF AND DUP2 MSTORE PUSH1 0x20 ADD SWAP1 DUP2 MSTORE PUSH1 0x20 ADD PUSH1 0x0 KECCAK256 SLOAD DUP9 PUSH1 0x13 ADD SLOAD TIMESTAMP PUSH1 0x40 MLOAD PUSH2 0x1F2D SWAP6 SWAP5 SWAP4 SWAP3 SWAP2 SWAP1 PUSH2 0x2EAB JUMP JUMPDEST PUSH1 0x40 MLOAD DUP1 SWAP2 SUB SWAP1 LOG3 POP POP POP POP POP POP POP JUMP JUMPDEST PUSH1 0x1 SLOAD DUP2 JUMP JUMPDEST PUSH1 0x40 MLOAD DUP1 PUSH2 0x2A0 ADD PUSH1 0x40 MSTORE DUP1 PUSH1 0x0 DUP2 MSTORE PUSH1 0x20 ADD PUSH1 0x60 DUP2 MSTORE PUSH1 0x20 ADD PUSH1 0x0 PUSH20 0xFFFFFFFFFFFFFFFFFFFFFFFFFFFFFFFFFFFFFFFF AND DUP2 MSTORE PUSH1 0x20 ADD PUSH1 0x60 DUP2 MSTORE PUSH1 0x20 ADD PUSH1 0x60 DUP2 MSTORE PUSH1 0x20 ADD PUSH1 0x60 DUP2 MSTORE PUSH1 0x20 ADD PUSH1 0x0 ISZERO ISZERO DUP2 MSTORE PUSH1 0x20 ADD PUSH1 0x60 DUP2 MSTORE PUSH1 0x20 ADD PUSH1 0x60 DUP2 MSTORE PUSH1 0x20 ADD PUSH1 0x0 PUSH20 0xFFFFFFFFFFFFFFFFFFFFFFFFFFFFFFFFFFFFFFFF AND DUP2 MSTORE PUSH1 0x20 ADD PUSH1 0x60 DUP2 MSTORE PUSH1 0x20 ADD PUSH1 0x60 DUP2 MSTORE PUSH1 0x20 ADD PUSH1 0x60 DUP2 MSTORE PUSH1 0x20 ADD PUSH1 0x60 DUP2 MSTORE PUSH1 0x20 ADD PUSH1 0x60 DUP2 MSTORE PUSH1 0x20 ADD PUSH1 0x0 DUP2 MSTORE PUSH1 0x20 ADD PUSH1 0x0 DUP2 MSTORE PUSH1 0x20 ADD PUSH1 0x0 DUP2 MSTORE PUSH1 0x20 ADD PUSH1 0x0 DUP2 MSTORE PUSH1 0x20 ADD PUSH1 0x0 DUP2 MSTORE PUSH1 0x20 ADD PUSH1 0x0 DUP2 MSTORE POP SWAP1 JUMP JUMPDEST PUSH1 0x0 PUSH1 0x40 MLOAD SWAP1 POP SWAP1 JUMP JUMPDEST PUSH1 0x0 DUP1 REVERT JUMPDEST PUSH1 0x0 DUP1 REVERT JUMPDEST PUSH1 0x0 DUP2 SWAP1 POP SWAP2 SWAP1 POP JUMP JUMPDEST PUSH2 0x2039 DUP2 PUSH2 0x2026 JUMP JUMPDEST DUP2 EQ PUSH2 0x2044 JUMPI PUSH1 0x0 DUP1 REVERT JUMPDEST POP JUMP JUMPDEST PUSH1 0x0 DUP2 CALLDATALOAD SWAP1 POP PUSH2 0x2056 DUP2 PUSH2 0x2030 JUMP JUMPDEST SWAP3 SWAP2 POP POP JUMP JUMPDEST PUSH1 0x0 PUSH1 0x20 DUP3 DUP5 SUB SLT ISZERO PUSH2 0x2072 JUMPI PUSH2 0x2071 PUSH2 0x201C JUMP JUMPDEST JUMPDEST PUSH1 0x0 PUSH2 0x2080 DUP5 DUP3 DUP6 ADD PUSH2 0x2047 JUMP JUMPDEST SWAP2 POP POP SWAP3 SWAP2 POP POP JUMP JUMPDEST PUSH1 0x0 DUP1 REVERT JUMPDEST PUSH1 0x0 DUP1 REVERT JUMPDEST PUSH1 0x0 PUSH1 0x1F NOT PUSH1 0x1F DUP4 ADD AND SWAP1 POP SWAP2 SWAP1 POP JUMP JUMPDEST PUSH32 0x4E487B7100000000000000000000000000000000000000000000000000000000 PUSH1 0x0 MSTORE PUSH1 0x41 PUSH1 0x4 MSTORE PUSH1 0x24 PUSH1 0x0 REVERT JUMPDEST PUSH2 0x20DC DUP3 PUSH2 0x2093 JUMP JUMPDEST DUP2 ADD DUP2 DUP2 LT PUSH8 0xFFFFFFFFFFFFFFFF DUP3 GT OR ISZERO PUSH2 0x20FB JUMPI PUSH2 0x20FA PUSH2 0x20A4 JUMP JUMPDEST JUMPDEST DUP1 PUSH1 0x40 MSTORE POP POP POP JUMP JUMPDEST PUSH1 0x0 PUSH2 0x210E PUSH2 0x2012 JUMP JUMPDEST SWAP1 POP PUSH2 0x211A DUP3 DUP3 PUSH2 0x20D3 JUMP JUMPDEST SWAP2 SWAP1 POP JUMP JUMPDEST PUSH1 0x0 PUSH8 0xFFFFFFFFFFFFFFFF DUP3 GT ISZERO PUSH2 0x213A JUMPI PUSH2 0x2139 PUSH2 0x20A4 JUMP JUMPDEST JUMPDEST PUSH2 0x2143 DUP3 PUSH2 0x2093 JUMP JUMPDEST SWAP1 POP PUSH1 0x20 DUP2 ADD SWAP1 POP SWAP2 SWAP1 POP JUMP JUMPDEST DUP3 DUP2 DUP4 CALLDATACOPY PUSH1 0x0 DUP4 DUP4 ADD MSTORE POP POP POP JUMP JUMPDEST PUSH1 0x0 PUSH2 0x2172 PUSH2 0x216D DUP5 PUSH2 0x211F JUMP JUMPDEST PUSH2 0x2104 JUMP JUMPDEST SWAP1 POP DUP3 DUP2 MSTORE PUSH1 0x20 DUP2 ADD DUP5 DUP5 DUP5 ADD GT ISZERO PUSH2 0x218E JUMPI PUSH2 0x218D PUSH2 0x208E JUMP JUMPDEST JUMPDEST PUSH2 0x2199 DUP5 DUP3 DUP6 PUSH2 0x2150 JUMP JUMPDEST POP SWAP4 SWAP3 POP POP POP JUMP JUMPDEST PUSH1 0x0 DUP3 PUSH1 0x1F DUP4 ADD SLT PUSH2 0x21B6 JUMPI PUSH2 0x21B5 PUSH2 0x2089 JUMP JUMPDEST JUMPDEST DUP2 CALLDATALOAD PUSH2 0x21C6 DUP5 DUP3 PUSH1 0x20 DUP7 ADD PUSH2 0x215F JUMP JUMPDEST SWAP2 POP POP SWAP3 SWAP2 POP POP JUMP JUMPDEST PUSH1 0x0 DUP1 PUSH1 0x0 PUSH1 0x60 DUP5 DUP7 SUB SLT ISZERO PUSH2 0x21E8 JUMPI PUSH2 0x21E7 PUSH2 0x201C JUMP JUMPDEST JUMPDEST PUSH1 0x0 PUSH2 0x21F6 DUP7 DUP3 DUP8 ADD PUSH2 0x2047 JUMP JUMPDEST SWAP4 POP POP PUSH1 0x20 DUP5 ADD CALLDATALOAD PUSH8 0xFFFFFFFFFFFFFFFF DUP2 GT ISZERO PUSH2 0x2217 JUMPI PUSH2 0x2216 PUSH2 0x2021 JUMP JUMPDEST JUMPDEST PUSH2 0x2223 DUP7 DUP3 DUP8 ADD PUSH2 0x21A1 JUMP JUMPDEST SWAP3 POP POP PUSH1 0x40 DUP5 ADD CALLDATALOAD PUSH8 0xFFFFFFFFFFFFFFFF DUP2 GT ISZERO PUSH2 0x2244 JUMPI PUSH2 0x2243 PUSH2 0x2021 JUMP JUMPDEST JUMPDEST PUSH2 0x2250 DUP7 DUP3 DUP8 ADD PUSH2 0x21A1 JUMP JUMPDEST SWAP2 POP POP SWAP3 POP SWAP3 POP SWAP3 JUMP JUMPDEST PUSH1 0x0 DUP2 ISZERO ISZERO SWAP1 POP SWAP2 SWAP1 POP JUMP JUMPDEST PUSH2 0x226F DUP2 PUSH2 0x225A JUMP JUMPDEST DUP3 MSTORE POP POP JUMP JUMPDEST PUSH1 0x0 PUSH1 0x20 DUP3 ADD SWAP1 POP PUSH2 0x228A PUSH1 0x0 DUP4 ADD DUP5 PUSH2 0x2266 JUMP JUMPDEST SWAP3 SWAP2 POP POP JUMP JUMPDEST PUSH1 0x0 PUSH20 0xFFFFFFFFFFFFFFFFFFFFFFFFFFFFFFFFFFFFFFFF DUP3 AND SWAP1 POP SWAP2 SWAP1 POP JUMP JUMPDEST PUSH1 0x0 PUSH2 0x22BB DUP3 PUSH2 0x2290 JUMP JUMPDEST SWAP1 POP SWAP2 SWAP1 POP JUMP JUMPDEST PUSH2 0x22CB DUP2 PUSH2 0x22B0 JUMP JUMPDEST DUP2 EQ PUSH2 0x22D6 JUMPI PUSH1 0x0 DUP1 REVERT JUMPDEST POP JUMP JUMPDEST PUSH1 0x0 DUP2 CALLDATALOAD SWAP1 POP PUSH2 0x22E8 DUP2 PUSH2 0x22C2 JUMP JUMPDEST SWAP3 SWAP2 POP POP JUMP JUMPDEST PUSH2 0x22F7 DUP2 PUSH2 0x225A JUMP JUMPDEST DUP2 EQ PUSH2 0x2302 JUMPI PUSH1 0x0 DUP1 REVERT JUMPDEST POP JUMP JUMPDEST PUSH1 0x0 DUP2 CALLDATALOAD SWAP1 POP PUSH2 0x2314 DUP2 PUSH2 0x22EE JUMP JUMPDEST SWAP3 SWAP2 POP POP JUMP JUMPDEST PUSH1 0x0 DUP1 PUSH1 0x0 DUP1 PUSH1 0x0 DUP1 PUSH1 0x0 PUSH1 0xE0 DUP9 DUP11 SUB SLT ISZERO PUSH2 0x2339 JUMPI PUSH2 0x2338 PUSH2 0x201C JUMP JUMPDEST JUMPDEST PUSH1 0x0 PUSH2 0x2347 DUP11 DUP3 DUP12 ADD PUSH2 0x2047 JUMP JUMPDEST SWAP8 POP POP PUSH1 0x20 DUP9 ADD CALLDATALOAD PUSH8 0xFFFFFFFFFFFFFFFF DUP2 GT ISZERO PUSH2 0x2368 JUMPI PUSH2 0x2367 PUSH2 0x2021 JUMP JUMPDEST JUMPDEST PUSH2 0x2374 DUP11 DUP3 DUP12 ADD PUSH2 0x21A1 JUMP JUMPDEST SWAP7 POP POP PUSH1 0x40 PUSH2 0x2385 DUP11 DUP3 DUP12 ADD PUSH2 0x22D9 JUMP JUMPDEST SWAP6 POP POP PUSH1 0x60 DUP9 ADD CALLDATALOAD PUSH8 0xFFFFFFFFFFFFFFFF DUP2 GT ISZERO PUSH2 0x23A6 JUMPI PUSH2 0x23A5 PUSH2 0x2021 JUMP JUMPDEST JUMPDEST PUSH2 0x23B2 DUP11 DUP3 DUP12 ADD PUSH2 0x21A1 JUMP JUMPDEST SWAP5 POP POP PUSH1 0x80 DUP9 ADD CALLDATALOAD PUSH8 0xFFFFFFFFFFFFFFFF DUP2 GT ISZERO PUSH2 0x23D3 JUMPI PUSH2 0x23D2 PUSH2 0x2021 JUMP JUMPDEST JUMPDEST PUSH2 0x23DF DUP11 DUP3 DUP12 ADD PUSH2 0x21A1 JUMP JUMPDEST SWAP4 POP POP PUSH1 0xA0 DUP9 ADD CALLDATALOAD PUSH8 0xFFFFFFFFFFFFFFFF DUP2 GT ISZERO PUSH2 0x2400 JUMPI PUSH2 0x23FF PUSH2 0x2021 JUMP JUMPDEST JUMPDEST PUSH2 0x240C DUP11 DUP3 DUP12 ADD PUSH2 0x21A1 JUMP JUMPDEST SWAP3 POP POP PUSH1 0xC0 PUSH2 0x241D DUP11 DUP3 DUP12 ADD PUSH2 0x2305 JUMP JUMPDEST SWAP2 POP POP SWAP3 SWAP6 SWAP9 SWAP2 SWAP5 SWAP8 POP SWAP3 SWAP6 POP JUMP JUMPDEST PUSH1 0x0 DUP1 PUSH1 0x0 DUP1 PUSH1 0x80 DUP6 DUP8 SUB SLT ISZERO PUSH2 0x2446 JUMPI PUSH2 0x2445 PUSH2 0x201C JUMP JUMPDEST JUMPDEST PUSH1 0x0 PUSH2 0x2454 DUP8 DUP3 DUP9 ADD PUSH2 0x2047 JUMP JUMPDEST SWAP5 POP POP PUSH1 0x20 DUP6 ADD CALLDATALOAD PUSH8 0xFFFFFFFFFFFFFFFF DUP2 GT ISZERO PUSH2 0x2475 JUMPI PUSH2 0x2474 PUSH2 0x2021 JUMP JUMPDEST JUMPDEST PUSH2 0x2481 DUP8 DUP3 DUP9 ADD PUSH2 0x21A1 JUMP JUMPDEST SWAP4 POP POP PUSH1 0x40 DUP6 ADD CALLDATALOAD PUSH8 0xFFFFFFFFFFFFFFFF DUP2 GT ISZERO PUSH2 0x24A2 JUMPI PUSH2 0x24A1 PUSH2 0x2021 JUMP JUMPDEST JUMPDEST PUSH2 0x24AE DUP8 DUP3 DUP9 ADD PUSH2 0x21A1 JUMP JUMPDEST SWAP3 POP POP PUSH1 0x60 PUSH2 0x24BF DUP8 DUP3 DUP9 ADD PUSH2 0x22D9 JUMP JUMPDEST SWAP2 POP POP SWAP3 SWAP6 SWAP2 SWAP5 POP SWAP3 POP JUMP JUMPDEST PUSH2 0x24D4 DUP2 PUSH2 0x22B0 JUMP JUMPDEST DUP3 MSTORE POP POP JUMP JUMPDEST PUSH1 0x0 PUSH1 0x20 DUP3 ADD SWAP1 POP PUSH2 0x24EF PUSH1 0x0 DUP4 ADD DUP5 PUSH2 0x24CB JUMP JUMPDEST SWAP3 SWAP2 POP POP JUMP JUMPDEST PUSH1 0x0 PUSH1 0x20 DUP3 DUP5 SUB SLT ISZERO PUSH2 0x250B JUMPI PUSH2 0x250A PUSH2 0x201C JUMP JUMPDEST JUMPDEST PUSH1 0x0 PUSH2 0x2519 DUP5 DUP3 DUP6 ADD PUSH2 0x22D9 JUMP JUMPDEST SWAP2 POP POP SWAP3 SWAP2 POP POP JUMP JUMPDEST PUSH1 0x0 DUP2 SWAP1 POP SWAP2 SWAP1 POP JUMP JUMPDEST PUSH2 0x2535 DUP2 PUSH2 0x2522 JUMP JUMPDEST DUP3 MSTORE POP POP JUMP JUMPDEST PUSH1 0x0 PUSH1 0x20 DUP3 ADD SWAP1 POP PUSH2 0x2550 PUSH1 0x0 DUP4 ADD DUP5 PUSH2 0x252C JUMP JUMPDEST SWAP3 SWAP2 POP POP JUMP JUMPDEST PUSH2 0x255F DUP2 PUSH2 0x2026 JUMP JUMPDEST DUP3 MSTORE POP POP JUMP JUMPDEST PUSH1 0x0 DUP2 MLOAD SWAP1 POP SWAP2 SWAP1 POP JUMP JUMPDEST PUSH1 0x0 DUP3 DUP3 MSTORE PUSH1 0x20 DUP3 ADD SWAP1 POP SWAP3 SWAP2 POP POP JUMP JUMPDEST PUSH1 0x0 JUMPDEST DUP4 DUP2 LT ISZERO PUSH2 0x259F JUMPI DUP1 DUP3 ADD MLOAD DUP2 DUP5 ADD MSTORE PUSH1 0x20 DUP2 ADD SWAP1 POP PUSH2 0x2584 JUMP JUMPDEST PUSH1 0x0 DUP5 DUP5 ADD MSTORE POP POP POP POP JUMP JUMPDEST PUSH1 0x0 PUSH2 0x25B6 DUP3 PUSH2 0x2565 JUMP JUMPDEST PUSH2 0x25C0 DUP2 DUP6 PUSH2 0x2570 JUMP JUMPDEST SWAP4 POP PUSH2 0x25D0 DUP2 DUP6 PUSH1 0x20 DUP7 ADD PUSH2 0x2581 JUMP JUMPDEST PUSH2 0x25D9 DUP2 PUSH2 0x2093 JUMP JUMPDEST DUP5 ADD SWAP2 POP POP SWAP3 SWAP2 POP POP JUMP JUMPDEST PUSH2 0x25ED DUP2 PUSH2 0x22B0 JUMP JUMPDEST DUP3 MSTORE POP POP JUMP JUMPDEST PUSH2 0x25FC DUP2 PUSH2 0x225A JUMP JUMPDEST DUP3 MSTORE POP POP JUMP JUMPDEST PUSH1 0x0 PUSH2 0x2A0 DUP4 ADD PUSH1 0x0 DUP4 ADD MLOAD PUSH2 0x261B PUSH1 0x0 DUP7 ADD DUP3 PUSH2 0x2556 JUMP JUMPDEST POP PUSH1 0x20 DUP4 ADD MLOAD DUP5 DUP3 SUB PUSH1 0x20 DUP7 ADD MSTORE PUSH2 0x2633 DUP3 DUP3 PUSH2 0x25AB JUMP JUMPDEST SWAP2 POP POP PUSH1 0x40 DUP4 ADD MLOAD PUSH2 0x2648 PUSH1 0x40 DUP7 ADD DUP3 PUSH2 0x25E4 JUMP JUMPDEST POP PUSH1 0x60 DUP4 ADD MLOAD DUP5 DUP3 SUB PUSH1 0x60 DUP7 ADD MSTORE PUSH2 0x2660 DUP3 DUP3 PUSH2 0x25AB JUMP JUMPDEST SWAP2 POP POP PUSH1 0x80 DUP4 ADD MLOAD DUP5 DUP3 SUB PUSH1 0x80 DUP7 ADD MSTORE PUSH2 0x267A DUP3 DUP3 PUSH2 0x25AB JUMP JUMPDEST SWAP2 POP POP PUSH1 0xA0 DUP4 ADD MLOAD DUP5 DUP3 SUB PUSH1 0xA0 DUP7 ADD MSTORE PUSH2 0x2694 DUP3 DUP3 PUSH2 0x25AB JUMP JUMPDEST SWAP2 POP POP PUSH1 0xC0 DUP4 ADD MLOAD PUSH2 0x26A9 PUSH1 0xC0 DUP7 ADD DUP3 PUSH2 0x25F3 JUMP JUMPDEST POP PUSH1 0xE0 DUP4 ADD MLOAD DUP5 DUP3 SUB PUSH1 0xE0 DUP7 ADD MSTORE PUSH2 0x26C1 DUP3 DUP3 PUSH2 0x25AB JUMP JUMPDEST SWAP2 POP POP PUSH2 0x100 DUP4 ADD MLOAD DUP5 DUP3 SUB PUSH2 0x100 DUP7 ADD MSTORE PUSH2 0x26DD DUP3 DUP3 PUSH2 0x25AB JUMP JUMPDEST SWAP2 POP POP PUSH2 0x120 DUP4 ADD MLOAD PUSH2 0x26F4 PUSH2 0x120 DUP7 ADD DUP3 PUSH2 0x25E4 JUMP JUMPDEST POP PUSH2 0x140 DUP4 ADD MLOAD DUP5 DUP3 SUB PUSH2 0x140 DUP7 ADD MSTORE PUSH2 0x270E DUP3 DUP3 PUSH2 0x25AB JUMP JUMPDEST SWAP2 POP POP PUSH2 0x160 DUP4 ADD MLOAD DUP5 DUP3 SUB PUSH2 0x160 DUP7 ADD MSTORE PUSH2 0x272A DUP3 DUP3 PUSH2 0x25AB JUMP JUMPDEST SWAP2 POP POP PUSH2 0x180 DUP4 ADD MLOAD DUP5 DUP3 SUB PUSH2 0x180 DUP7 ADD MSTORE PUSH2 0x2746 DUP3 DUP3 PUSH2 0x25AB JUMP JUMPDEST SWAP2 POP POP PUSH2 0x1A0 DUP4 ADD MLOAD DUP5 DUP3 SUB PUSH2 0x1A0 DUP7 ADD MSTORE PUSH2 0x2762 DUP3 DUP3 PUSH2 0x25AB JUMP JUMPDEST SWAP2 POP POP PUSH2 0x1C0 DUP4 ADD MLOAD DUP5 DUP3 SUB PUSH2 0x1C0 DUP7 ADD MSTORE PUSH2 0x277E DUP3 DUP3 PUSH2 0x25AB JUMP JUMPDEST SWAP2 POP POP PUSH2 0x1E0 DUP4 ADD MLOAD PUSH2 0x2795 PUSH2 0x1E0 DUP7 ADD DUP3 PUSH2 0x2556 JUMP JUMPDEST POP PUSH2 0x200 DUP4 ADD MLOAD PUSH2 0x27AA PUSH2 0x200 DUP7 ADD DUP3 PUSH2 0x2556 JUMP JUMPDEST POP PUSH2 0x220 DUP4 ADD MLOAD PUSH2 0x27BF PUSH2 0x220 DUP7 ADD DUP3 PUSH2 0x2556 JUMP JUMPDEST POP PUSH2 0x240 DUP4 ADD MLOAD PUSH2 0x27D4 PUSH2 0x240 DUP7 ADD DUP3 PUSH2 0x2556 JUMP JUMPDEST POP PUSH2 0x260 DUP4 ADD MLOAD PUSH2 0x27E9 PUSH2 0x260 DUP7 ADD DUP3 PUSH2 0x2556 JUMP JUMPDEST POP PUSH2 0x280 DUP4 ADD MLOAD PUSH2 0x27FE PUSH2 0x280 DUP7 ADD DUP3 PUSH2 0x2556 JUMP JUMPDEST POP DUP1 SWAP2 POP POP SWAP3 SWAP2 POP POP JUMP JUMPDEST PUSH1 0x0 PUSH1 0x20 DUP3 ADD SWAP1 POP DUP2 DUP2 SUB PUSH1 0x0 DUP4 ADD MSTORE PUSH2 0x2823 DUP2 DUP5 PUSH2 0x2602 JUMP JUMPDEST SWAP1 POP SWAP3 SWAP2 POP POP JUMP JUMPDEST PUSH1 0x0 DUP1 PUSH1 0x0 DUP1 PUSH1 0x80 DUP6 DUP8 SUB SLT ISZERO PUSH2 0x2845 JUMPI PUSH2 0x2844 PUSH2 0x201C JUMP JUMPDEST JUMPDEST PUSH1 0x0 PUSH2 0x2853 DUP8 DUP3 DUP9 ADD PUSH2 0x2047 JUMP JUMPDEST SWAP5 POP POP PUSH1 0x20 DUP6 ADD CALLDATALOAD PUSH8 0xFFFFFFFFFFFFFFFF DUP2 GT ISZERO PUSH2 0x2874 JUMPI PUSH2 0x2873 PUSH2 0x2021 JUMP JUMPDEST JUMPDEST PUSH2 0x2880 DUP8 DUP3 DUP9 ADD PUSH2 0x21A1 JUMP JUMPDEST SWAP4 POP POP PUSH1 0x40 DUP6 ADD CALLDATALOAD PUSH8 0xFFFFFFFFFFFFFFFF DUP2 GT ISZERO PUSH2 0x28A1 JUMPI PUSH2 0x28A0 PUSH2 0x2021 JUMP JUMPDEST JUMPDEST PUSH2 0x28AD DUP8 DUP3 DUP9 ADD PUSH2 0x21A1 JUMP JUMPDEST SWAP3 POP POP PUSH1 0x60 DUP6 ADD CALLDATALOAD PUSH8 0xFFFFFFFFFFFFFFFF DUP2 GT ISZERO PUSH2 0x28CE JUMPI PUSH2 0x28CD PUSH2 0x2021 JUMP JUMPDEST JUMPDEST PUSH2 0x28DA DUP8 DUP3 DUP9 ADD PUSH2 0x21A1 JUMP JUMPDEST SWAP2 POP POP SWAP3 SWAP6 SWAP2 SWAP5 POP SWAP3 POP JUMP JUMPDEST PUSH2 0x28EF DUP2 PUSH2 0x2026 JUMP JUMPDEST DUP3 MSTORE POP POP JUMP JUMPDEST PUSH1 0x0 PUSH1 0x20 DUP3 ADD SWAP1 POP PUSH2 0x290A PUSH1 0x0 DUP4 ADD DUP5 PUSH2 0x28E6 JUMP JUMPDEST SWAP3 SWAP2 POP POP JUMP JUMPDEST PUSH1 0x0 PUSH1 0x40 DUP3 ADD SWAP1 POP PUSH2 0x2925 PUSH1 0x0 DUP4 ADD DUP6 PUSH2 0x28E6 JUMP JUMPDEST PUSH2 0x2932 PUSH1 0x20 DUP4 ADD DUP5 PUSH2 0x28E6 JUMP JUMPDEST SWAP4 SWAP3 POP POP POP JUMP JUMPDEST PUSH32 0x4E487B7100000000000000000000000000000000000000000000000000000000 PUSH1 0x0 MSTORE PUSH1 0x22 PUSH1 0x4 MSTORE PUSH1 0x24 PUSH1 0x0 REVERT JUMPDEST PUSH1 0x0 PUSH1 0x2 DUP3 DIV SWAP1 POP PUSH1 0x1 DUP3 AND DUP1 PUSH2 0x2980 JUMPI PUSH1 0x7F DUP3 AND SWAP2 POP JUMPDEST PUSH1 0x20 DUP3 LT DUP2 SUB PUSH2 0x2993 JUMPI PUSH2 0x2992 PUSH2 0x2939 JUMP JUMPDEST JUMPDEST POP SWAP2 SWAP1 POP JUMP JUMPDEST PUSH1 0x0 DUP2 SWAP1 POP DUP2 PUSH1 0x0 MSTORE PUSH1 0x20 PUSH1 0x0 KECCAK256 SWAP1 POP SWAP2 SWAP1 POP JUMP JUMPDEST PUSH1 0x0 PUSH1 0x20 PUSH1 0x1F DUP4 ADD DIV SWAP1 POP SWAP2 SWAP1 POP JUMP JUMPDEST PUSH1 0x0 DUP3 DUP3 SHL SWAP1 POP SWAP3 SWAP2 POP POP JUMP JUMPDEST PUSH1 0x0 PUSH1 0x8 DUP4 MUL PUSH2 0x29FB PUSH32 0xFFFFFFFFFFFFFFFFFFFFFFFFFFFFFFFFFFFFFFFFFFFFFFFFFFFFFFFFFFFFFFFF DUP3 PUSH2 0x29BE JUMP JUMPDEST PUSH2 0x2A05 DUP7 DUP4 PUSH2 0x29BE JUMP JUMPDEST SWAP6 POP DUP1 NOT DUP5 AND SWAP4 POP DUP1 DUP7 AND DUP5 OR SWAP3 POP POP POP SWAP4 SWAP3 POP POP POP JUMP JUMPDEST PUSH1 0x0 DUP2 SWAP1 POP SWAP2 SWAP1 POP JUMP JUMPDEST PUSH1 0x0 PUSH2 0x2A42 PUSH2 0x2A3D PUSH2 0x2A38 DUP5 PUSH2 0x2026 JUMP JUMPDEST PUSH2 0x2A1D JUMP JUMPDEST PUSH2 0x2026 JUMP JUMPDEST SWAP1 POP SWAP2 SWAP1 POP JUMP JUMPDEST PUSH1 0x0 DUP2 SWAP1 POP SWAP2 SWAP1 POP JUMP JUMPDEST PUSH2 0x2A5C DUP4 PUSH2 0x2A27 JUMP JUMPDEST PUSH2 0x2A70 PUSH2 0x2A68 DUP3 PUSH2 0x2A49 JUMP JUMPDEST DUP5 DUP5 SLOAD PUSH2 0x29CB JUMP JUMPDEST DUP3 SSTORE POP POP POP POP JUMP JUMPDEST PUSH1 0x0 SWAP1 JUMP JUMPDEST PUSH2 0x2A85 PUSH2 0x2A78 JUMP JUMPDEST PUSH2 0x2A90 DUP2 DUP5 DUP5 PUSH2 0x2A53 JUMP JUMPDEST POP POP POP JUMP JUMPDEST JUMPDEST DUP2 DUP2 LT ISZERO PUSH2 0x2AB4 JUMPI PUSH2 0x2AA9 PUSH1 0x0 DUP3 PUSH2 0x2A7D JUMP JUMPDEST PUSH1 0x1 DUP2 ADD SWAP1 POP PUSH2 0x2A96 JUMP JUMPDEST POP POP JUMP JUMPDEST PUSH1 0x1F DUP3 GT ISZERO PUSH2 0x2AF9 JUMPI PUSH2 0x2ACA DUP2 PUSH2 0x2999 JUMP JUMPDEST PUSH2 0x2AD3 DUP5 PUSH2 0x29AE JUMP JUMPDEST DUP2 ADD PUSH1 0x20 DUP6 LT ISZERO PUSH2 0x2AE2 JUMPI DUP2 SWAP1 POP JUMPDEST PUSH2 0x2AF6 PUSH2 0x2AEE DUP6 PUSH2 0x29AE JUMP JUMPDEST DUP4 ADD DUP3 PUSH2 0x2A95 JUMP JUMPDEST POP POP JUMPDEST POP POP POP JUMP JUMPDEST PUSH1 0x0 DUP3 DUP3 SHR SWAP1 POP SWAP3 SWAP2 POP POP JUMP JUMPDEST PUSH1 0x0 PUSH2 0x2B1C PUSH1 0x0 NOT DUP5 PUSH1 0x8 MUL PUSH2 0x2AFE JUMP JUMPDEST NOT DUP1 DUP4 AND SWAP2 POP POP SWAP3 SWAP2 POP POP JUMP JUMPDEST PUSH1 0x0 PUSH2 0x2B35 DUP4 DUP4 PUSH2 0x2B0B JUMP JUMPDEST SWAP2 POP DUP3 PUSH1 0x2 MUL DUP3 OR SWAP1 POP SWAP3 SWAP2 POP POP JUMP JUMPDEST PUSH2 0x2B4E DUP3 PUSH2 0x2565 JUMP JUMPDEST PUSH8 0xFFFFFFFFFFFFFFFF DUP2 GT ISZERO PUSH2 0x2B67 JUMPI PUSH2 0x2B66 PUSH2 0x20A4 JUMP JUMPDEST JUMPDEST PUSH2 0x2B71 DUP3 SLOAD PUSH2 0x2968 JUMP JUMPDEST PUSH2 0x2B7C DUP3 DUP3 DUP6 PUSH2 0x2AB8 JUMP JUMPDEST PUSH1 0x0 PUSH1 0x20 SWAP1 POP PUSH1 0x1F DUP4 GT PUSH1 0x1 DUP2 EQ PUSH2 0x2BAF JUMPI PUSH1 0x0 DUP5 ISZERO PUSH2 0x2B9D JUMPI DUP3 DUP8 ADD MLOAD SWAP1 POP JUMPDEST PUSH2 0x2BA7 DUP6 DUP3 PUSH2 0x2B29 JUMP JUMPDEST DUP7 SSTORE POP PUSH2 0x2C0F JUMP JUMPDEST PUSH1 0x1F NOT DUP5 AND PUSH2 0x2BBD DUP7 PUSH2 0x2999 JUMP JUMPDEST PUSH1 0x0 JUMPDEST DUP3 DUP2 LT ISZERO PUSH2 0x2BE5 JUMPI DUP5 DUP10 ADD MLOAD DUP3 SSTORE PUSH1 0x1 DUP3 ADD SWAP2 POP PUSH1 0x20 DUP6 ADD SWAP5 POP PUSH1 0x20 DUP2 ADD SWAP1 POP PUSH2 0x2BC0 JUMP JUMPDEST DUP7 DUP4 LT ISZERO PUSH2 0x2C02 JUMPI DUP5 DUP10 ADD MLOAD PUSH2 0x2BFE PUSH1 0x1F DUP10 AND DUP3 PUSH2 0x2B0B JUMP JUMPDEST DUP4 SSTORE POP JUMPDEST PUSH1 0x1 PUSH1 0x2 DUP9 MUL ADD DUP9 SSTORE POP POP POP JUMPDEST POP POP POP POP POP POP JUMP JUMPDEST PUSH1 0x0 DUP3 DUP3 MSTORE PUSH1 0x20 DUP3 ADD SWAP1 POP SWAP3 SWAP2 POP POP JUMP JUMPDEST PUSH1 0x0 PUSH2 0x2C33 DUP3 PUSH2 0x2565 JUMP JUMPDEST PUSH2 0x2C3D DUP2 DUP6 PUSH2 0x2C17 JUMP JUMPDEST SWAP4 POP PUSH2 0x2C4D DUP2 DUP6 PUSH1 0x20 DUP7 ADD PUSH2 0x2581 JUMP JUMPDEST PUSH2 0x2C56 DUP2 PUSH2 0x2093 JUMP JUMPDEST DUP5 ADD SWAP2 POP POP SWAP3 SWAP2 POP POP JUMP JUMPDEST PUSH1 0x0 PUSH1 0x60 DUP3 ADD SWAP1 POP DUP2 DUP2 SUB PUSH1 0x0 DUP4 ADD MSTORE PUSH2 0x2C7B DUP2 DUP7 PUSH2 0x2C28 JUMP JUMPDEST SWAP1 POP DUP2 DUP2 SUB PUSH1 0x20 DUP4 ADD MSTORE PUSH2 0x2C8F DUP2 DUP6 PUSH2 0x2C28 JUMP JUMPDEST SWAP1 POP PUSH2 0x2C9E PUSH1 0x40 DUP4 ADD DUP5 PUSH2 0x28E6 JUMP JUMPDEST SWAP5 SWAP4 POP POP POP POP JUMP JUMPDEST PUSH1 0x0 PUSH1 0x80 DUP3 ADD SWAP1 POP DUP2 DUP2 SUB PUSH1 0x0 DUP4 ADD MSTORE PUSH2 0x2CC0 DUP2 DUP8 PUSH2 0x2C28 JUMP JUMPDEST SWAP1 POP DUP2 DUP2 SUB PUSH1 0x20 DUP4 ADD MSTORE PUSH2 0x2CD4 DUP2 DUP7 PUSH2 0x2C28 JUMP JUMPDEST SWAP1 POP DUP2 DUP2 SUB PUSH1 0x40 DUP4 ADD MSTORE PUSH2 0x2CE8 DUP2 DUP6 PUSH2 0x2C28 JUMP JUMPDEST SWAP1 POP PUSH2 0x2CF7 PUSH1 0x60 DUP4 ADD DUP5 PUSH2 0x28E6 JUMP JUMPDEST SWAP6 SWAP5 POP POP POP POP POP JUMP JUMPDEST PUSH1 0x0 DUP2 SWAP1 POP SWAP3 SWAP2 POP POP JUMP JUMPDEST PUSH1 0x0 DUP2 SWAP1 POP DUP2 PUSH1 0x0 MSTORE PUSH1 0x20 PUSH1 0x0 KECCAK256 SWAP1 POP SWAP2 SWAP1 POP JUMP JUMPDEST PUSH1 0x0 DUP2 SLOAD PUSH2 0x2D2D DUP2 PUSH2 0x2968 JUMP JUMPDEST PUSH2 0x2D37 DUP2 DUP7 PUSH2 0x2D00 JUMP JUMPDEST SWAP5 POP PUSH1 0x1 DUP3 AND PUSH1 0x0 DUP2 EQ PUSH2 0x2D52 JUMPI PUSH1 0x1 DUP2 EQ PUSH2 0x2D67 JUMPI PUSH2 0x2D9A JUMP JUMPDEST PUSH1 0xFF NOT DUP4 AND DUP7 MSTORE DUP2 ISZERO ISZERO DUP3 MUL DUP7 ADD SWAP4 POP PUSH2 0x2D9A JUMP JUMPDEST PUSH2 0x2D70 DUP6 PUSH2 0x2D0B JUMP JUMPDEST PUSH1 0x0 JUMPDEST DUP4 DUP2 LT ISZERO PUSH2 0x2D92 JUMPI DUP2 SLOAD DUP2 DUP10 ADD MSTORE PUSH1 0x1 DUP3 ADD SWAP2 POP PUSH1 0x20 DUP2 ADD SWAP1 POP PUSH2 0x2D73 JUMP JUMPDEST DUP4 DUP9 ADD SWAP6 POP POP POP JUMPDEST POP POP POP SWAP3 SWAP2 POP POP JUMP JUMPDEST PUSH1 0x0 PUSH2 0x2DAF DUP3 DUP5 PUSH2 0x2D20 JUMP JUMPDEST SWAP2 POP DUP2 SWAP1 POP SWAP3 SWAP2 POP POP JUMP JUMPDEST POP JUMP JUMPDEST PUSH1 0x0 PUSH2 0x2DCA PUSH1 0x0 DUP4 PUSH2 0x2D00 JUMP JUMPDEST SWAP2 POP PUSH2 0x2DD5 DUP3 PUSH2 0x2DBA JUMP JUMPDEST PUSH1 0x0 DUP3 ADD SWAP1 POP SWAP2 SWAP1 POP JUMP JUMPDEST PUSH1 0x0 PUSH2 0x2DEB DUP3 PUSH2 0x2DBD JUMP JUMPDEST SWAP2 POP DUP2 SWAP1 POP SWAP2 SWAP1 POP JUMP JUMPDEST PUSH32 0x4E487B7100000000000000000000000000000000000000000000000000000000 PUSH1 0x0 MSTORE PUSH1 0x11 PUSH1 0x4 MSTORE PUSH1 0x24 PUSH1 0x0 REVERT JUMPDEST PUSH1 0x0 PUSH2 0x2E2F DUP3 PUSH2 0x2522 JUMP JUMPDEST SWAP2 POP PUSH2 0x2E3A DUP4 PUSH2 0x2522 JUMP JUMPDEST SWAP3 POP DUP3 DUP3 ADD SWAP1 POP DUP3 DUP2 SLT ISZERO PUSH1 0x0 DUP4 SLT AND DUP4 DUP3 SLT PUSH1 0x0 DUP5 SLT ISZERO AND OR ISZERO PUSH2 0x2E62 JUMPI PUSH2 0x2E61 PUSH2 0x2DF5 JUMP JUMPDEST JUMPDEST SWAP3 SWAP2 POP POP JUMP JUMPDEST PUSH1 0x0 PUSH2 0x2E73 DUP3 PUSH2 0x2522 JUMP JUMPDEST SWAP2 POP PUSH2 0x2E7E DUP4 PUSH2 0x2522 JUMP JUMPDEST SWAP3 POP DUP3 DUP3 SUB SWAP1 POP DUP2 DUP2 SLT PUSH1 0x0 DUP5 SLT AND DUP3 DUP3 SGT PUSH1 0x0 DUP6 SLT ISZERO AND OR ISZERO PUSH2 0x2EA5 JUMPI PUSH2 0x2EA4 PUSH2 0x2DF5 JUMP JUMPDEST JUMPDEST SWAP3 SWAP2 POP POP JUMP JUMPDEST PUSH1 0x0 PUSH1 0xA0 DUP3 ADD SWAP1 POP DUP2 DUP2 SUB PUSH1 0x0 DUP4 ADD MSTORE PUSH2 0x2EC5 DUP2 DUP9 PUSH2 0x2C28 JUMP JUMPDEST SWAP1 POP DUP2 DUP2 SUB PUSH1 0x20 DUP4 ADD MSTORE PUSH2 0x2ED9 DUP2 DUP8 PUSH2 0x2C28 JUMP JUMPDEST SWAP1 POP PUSH2 0x2EE8 PUSH1 0x40 DUP4 ADD DUP7 PUSH2 0x252C JUMP JUMPDEST PUSH2 0x2EF5 PUSH1 0x60 DUP4 ADD DUP6 PUSH2 0x28E6 JUMP JUMPDEST PUSH2 0x2F02 PUSH1 0x80 DUP4 ADD DUP5 PUSH2 0x28E6 JUMP JUMPDEST SWAP7 SWAP6 POP POP POP POP POP POP JUMP INVALID LOG2 PUSH5 0x6970667358 0x22 SLT KECCAK256 0x2B 0xC8 JUMPI DUP8 MOD OR 0xC2 0xE0 CALLVALUE 0xEA RETURN 0xC6 BALANCE 0xB0 0x21 0xA9 DUP3 DUP2 JUMP 0xFC 0xE0 PUSH8 0x9D4E41B240BD6D84 0x4E 0xF9 PUSH5 0x736F6C6343 STOP ADDMOD XOR STOP CALLER "},"methodIdentifiers":{"assignVolunteer(uint256,string,string,address)":"625248cb","createSOS(uint256,string,address,string,string,string,bool)":"44848ba4","finalizeSOS(uint256,string,string,string)":"dadad071","getReputation(address)":"9c89a0e2","getSOS(uint256)":"c729ff33","owner()":"8da5cb5b","reputation(address)":"b9f79451","rewardAmount()":"f7b2a7be","sosExists(uint256)":"360530cb","updateRewardAmount(uint256)":"15c2ba14","volunteerReportSOS(uint256,string,string)":"202944ea"}}}}}