{
  "_format": "hh-sol-artifact-1",
  "contractName": "ResQNetProtocol",
  "sourceName": "contracts/ResQNetProtocol.sol",
  "abi": [
    {
      "inputs": [],
      "stateMutability": "nonpayable",
      "type": "constructor"
    },
    {
      "inputs": [],
      "name": "CallerIsNotOwner",
      "type": "error"
    },
    {
      "inputs": [],
      "name": "InvalidRewardAmount",
      "type": "error"
    },
    {
      "inputs": [],
      "name": "InvalidStatus",
      "type": "error"
    },
    {
      "inputs": [],
      "name": "MismatchedFinalStatus",
      "type": "error"
    },
    {
      "inputs": [],
      "name": "RewardTransferFailed",
      "type": "error"
    },
    {
      "inputs": [],
      "name": "SOSAlreadyExists",
      "type": "error"
    },
    {
      "inputs": [],
      "name": "SOSAlreadyFinalized",
      "type": "error"
    },
    {
      "inputs": [],
      "name": "SOSNotFound",
      "type": "error"
    },
    {
      "inputs": [],
      "name": "VolunteerNotAssigned",
      "type": "error"
    },
    {
      "inputs": [],
      "name": "VolunteerNotReported",
      "type": "error"
    },
    {
      "anonymous": false,
      "inputs": [
        {
          "indexed": false,
          "internalType": "uint256",
          "name": "oldAmount",
          "type": "uint256"
        },
        {
          "indexed": false,
          "internalType": "uint256",
          "name": "newAmount",
          "type": "uint256"
        }
      ],
      "name": "RewardAmountUpdated",
      "type": "event"
    },
    {
      "anonymous": false,
      "inputs": [
        {
          "indexed": true,
          "internalType": "uint256",
          "name": "sosId",
          "type": "uint256"
        },
        {
          "indexed": false,
          "internalType": "string",
          "name": "reporterName",
          "type": "string"
        },
        {
          "indexed": true,
          "internalType": "address",
          "name": "reporterWallet",
          "type": "address"
        },
        {
          "indexed": false,
          "internalType": "string",
          "name": "emergencyType",
          "type": "string"
        },
        {
          "indexed": false,
          "internalType": "string",
          "name": "priority",
          "type": "string"
        },
        {
          "indexed": false,
          "internalType": "uint256",
          "name": "timestamp",
          "type": "uint256"
        }
      ],
      "name": "SOSCreated",
      "type": "event"
    },
    {
      "anonymous": false,
      "inputs": [
        {
          "indexed": true,
          "internalType": "uint256",
          "name": "sosId",
          "type": "uint256"
        },
        {
          "indexed": true,
          "internalType": "address",
          "name": "volunteerWallet",
          "type": "address"
        },
        {
          "indexed": false,
          "internalType": "string",
          "name": "status",
          "type": "string"
        },
        {
          "indexed": false,
          "internalType": "string",
          "name": "finalizedBy",
          "type": "string"
        },
        {
          "indexed": false,
          "internalType": "int256",
          "name": "newReputation",
          "type": "int256"
        },
        {
          "indexed": false,
          "internalType": "uint256",
          "name": "rewardPaidWei",
          "type": "uint256"
        },
        {
          "indexed": false,
          "internalType": "uint256",
          "name": "timestamp",
          "type": "uint256"
        }
      ],
      "name": "SOSFinalized",
      "type": "event"
    },
    {
      "anonymous": false,
      "inputs": [
        {
          "indexed": true,
          "internalType": "uint256",
          "name": "sosId",
          "type": "uint256"
        },
        {
          "indexed": true,
          "internalType": "address",
          "name": "volunteerWallet",
          "type": "address"
        },
        {
          "indexed": false,
          "internalType": "string",
          "name": "volunteerName",
          "type": "string"
        },
        {
          "indexed": false,
          "internalType": "string",
          "name": "assignedBy",
          "type": "string"
        },
        {
          "indexed": false,
          "internalType": "uint256",
          "name": "timestamp",
          "type": "uint256"
        }
      ],
      "name": "VolunteerAssigned",
      "type": "event"
    },
    {
      "anonymous": false,
      "inputs": [
        {
          "indexed": true,
          "internalType": "uint256",
          "name": "sosId",
          "type": "uint256"
        },
        {
          "indexed": true,
          "internalType": "address",
          "name": "volunteerWallet",
          "type": "address"
        },
        {
          "indexed": false,
          "internalType": "string",
          "name": "status",
          "type": "string"
        },
        {
          "indexed": false,
          "internalType": "string",
          "name": "volunteerNote",
          "type": "string"
        },
        {
          "indexed": false,
          "internalType": "uint256",
          "name": "timestamp",
          "type": "uint256"
        }
      ],
      "name": "VolunteerReported",
      "type": "event"
    },
    {
      "inputs": [
        {
          "internalType": "uint256",
          "name": "_sosId",
          "type": "uint256"
        },
        {
          "internalType": "string",
          "name": "_volunteerName",
          "type": "string"
        },
        {
          "internalType": "string",
          "name": "_assignedBy",
          "type": "string"
        },
        {
          "internalType": "address",
          "name": "_volunteerWallet",
          "type": "address"
        }
      ],
      "name": "assignVolunteer",
      "outputs": [],
      "stateMutability": "nonpayable",
      "type": "function"
    },
    {
      "inputs": [
        {
          "internalType": "uint256",
          "name": "_sosId",
          "type": "uint256"
        },
        {
          "internalType": "string",
          "name": "_reporterName",
          "type": "string"
        },
        {
          "internalType": "address",
          "name": "_reporterWallet",
          "type": "address"
        },
        {
          "internalType": "string",
          "name": "_message",
          "type": "string"
        },
        {
          "internalType": "string",
          "name": "_emergencyType",
          "type": "string"
        },
        {
          "internalType": "string",
          "name": "_priority",
          "type": "string"
        },
        {
          "internalType": "bool",
          "name": "_suspicious",
          "type": "bool"
        }
      ],
      "name": "createSOS",
      "outputs": [],
      "stateMutability": "nonpayable",
      "type": "function"
    },
    {
      "inputs": [
        {
          "internalType": "uint256",
          "name": "_sosId",
          "type": "uint256"
        },
        {
          "internalType": "string",
          "name": "_finalStatus",
          "type": "string"
        },
        {
          "internalType": "string",
          "name": "_finalizedBy",
          "type": "string"
        },
        {
          "internalType": "string",
          "name": "_adminNote",
          "type": "string"
        }
      ],
      "name": "finalizeSOS",
      "outputs": [],
      "stateMutability": "payable",
      "type": "function"
    },
    {
      "inputs": [
        {
          "internalType": "address",
          "name": "user",
          "type": "address"
        }
      ],
      "name": "getReputation",
      "outputs": [
        {
          "internalType": "int256",
          "name": "",
          "type": "int256"
        }
      ],
      "stateMutability": "view",
      "type": "function"
    },
    {
      "inputs": [
        {
          "internalType": "uint256",
          "name": "_sosId",
          "type": "uint256"
        }
      ],
      "name": "getSOS",
      "outputs": [
        {
          "components": [
            {
              "internalType": "uint256",
              "name": "sosId",
              "type": "uint256"
            },
            {
              "internalType": "string",
              "name": "reporterName",
              "type": "string"
            },
            {
              "internalType": "address",
              "name": "reporterWallet",
              "type": "address"
            },
            {
              "internalType": "string",
              "name": "message",
              "type": "string"
            },
            {
              "internalType": "string",
              "name": "emergencyType",
              "type": "string"
            },
            {
              "internalType": "string",
              "name": "priority",
              "type": "string"
            },
            {
              "internalType": "bool",
              "name": "suspicious",
              "type": "bool"
            },
            {
              "internalType": "string",
              "name": "status",
              "type": "string"
            },
            {
              "internalType": "string",
              "name": "volunteerName",
              "type": "string"
            },
            {
              "internalType": "address",
              "name": "volunteerWallet",
              "type": "address"
            },
            {
              "internalType": "string",
              "name": "assignedBy",
              "type": "string"
            },
            {
              "internalType": "string",
              "name": "volunteerNote",
              "type": "string"
            },
            {
              "internalType": "string",
              "name": "volunteerReportedStatus",
              "type": "string"
            },
            {
              "internalType": "string",
              "name": "finalizedBy",
              "type": "string"
            },
            {
              "internalType": "string",
              "name": "adminNote",
              "type": "string"
            },
            {
              "internalType": "uint256",
              "name": "createdAt",
              "type": "uint256"
            },
            {
              "internalType": "uint256",
              "name": "assignedAt",
              "type": "uint256"
            },
            {
              "internalType": "uint256",
              "name": "volunteerReportedAt",
              "type": "uint256"
            },
            {
              "internalType": "uint256",
              "name": "completedAt",
              "type": "uint256"
            },
            {
              "internalType": "uint256",
              "name": "rewardPaidWei",
              "type": "uint256"
            },
            {
              "internalType": "uint256",
              "name": "rewardPaidAt",
              "type": "uint256"
            }
          ],
          "internalType": "struct ResQNetProtocol.SOSRecord",
          "name": "",
          "type": "tuple"
        }
      ],
      "stateMutability": "view",
      "type": "function"
    },
    {
      "inputs": [],
      "name": "owner",
      "outputs": [
        {
          "internalType": "address",
          "name": "",
          "type": "address"
        }
      ],
      "stateMutability": "view",
      "type": "function"
    },
    {
      "inputs": [
        {
          "internalType": "address",
          "name": "",
          "type": "address"
        }
      ],
      "name": "reputation",
      "outputs": [
        {
          "internalType": "int256",
          "name": "",
          "type": "int256"
        }
      ],
      "stateMutability": "view",
      "type": "function"
    },
    {
      "inputs": [],
      "name": "rewardAmount",
      "outputs": [
        {
          "internalType": "uint256",
          "name": "",
          "type": "uint256"
        }
      ],
      "stateMutability": "view",
      "type": "function"
    },
    {
      "inputs": [
        {
          "internalType": "uint256",
          "name": "",
          "type": "uint256"
        }
      ],
      "name": "sosExists",
      "outputs": [
        {
          "internalType": "bool",
          "name": "",
          "type": "bool"
        }
      ],
      "stateMutability": "view",
      "type": "function"
    },
    {
      "inputs": [
        {
          "internalType": "uint256",
          "name": "_newAmount",
          "type": "uint256"
        }
      ],
      "name": "updateRewardAmount",
      "outputs": [],
      "stateMutability": "nonpayable",
      "type": "function"
    },
    {
      "inputs": [
        {
          "internalType": "uint256",
          "name": "_sosId",
          "type": "uint256"
        },
        {
          "internalType": "string",
          "name": "_status",
          "type": "string"
        },
        {
          "internalType": "string",
          "name": "_volunteerNote",
          "type": "string"
        }
      ],
      "name": "volunteerReportSOS",
      "outputs": [],
      "stateMutability": "nonpayable",
      "type": "function"
    }
  ],
  "bytecode": "0x608060405234801561001057600080fd5b50336000806101000a81548173ffffffffffffffffffffffffffffffffffffffff021916908373ffffffffffffffffffffffffffffffffffffffff160217905550655af3107a4000600181905550612f428061006d6000396000f3fe60806040526004361061009c5760003560e01c80638da5cb5b116100645780638da5cb5b146101825780639c89a0e2146101ad578063b9f79451146101ea578063c729ff3314610227578063dadad07114610264578063f7b2a7be146102805761009c565b806315c2ba14146100a1578063202944ea146100ca578063360530cb146100f357806344848ba414610130578063625248cb14610159575b600080fd5b3480156100ad57600080fd5b506100c860048036038101906100c3919061205c565b6102ab565b005b3480156100d657600080fd5b506100f160048036038101906100ec91906121cf565b61037b565b005b3480156100ff57600080fd5b5061011a6004803603810190610115919061205c565b610772565b6040516101279190612275565b60405180910390f35b34801561013c57600080fd5b506101576004803603810190610152919061231a565b610792565b005b34801561016557600080fd5b50610180600480360381019061017b919061242c565b610c4d565b005b34801561018e57600080fd5b50610197610e8f565b6040516101a491906124da565b60405180910390f35b3480156101b957600080fd5b506101d460048036038101906101cf91906124f5565b610eb3565b6040516101e1919061253b565b60405180910390f35b3480156101f657600080fd5b50610211600480360381019061020c91906124f5565b610efc565b60405161021e919061253b565b60405180910390f35b34801561023357600080fd5b5061024e6004803603810190610249919061205c565b610f14565b60405161025b9190612809565b60405180910390f35b61027e6004803603810190610279919061282b565b6116ec565b005b34801561028c57600080fd5b50610295611f3e565b6040516102a291906128f5565b60405180910390f35b60008054906101000a900473ffffffffffffffffffffffffffffffffffffffff1673ffffffffffffffffffffffffffffffffffffffff163373ffffffffffffffffffffffffffffffffffffffff1614610330576040517f6db2465f00000000000000000000000000000000000000000000000000000000815260040160405180910390fd5b60006001549050816001819055507ff0d37c3ae852021ac329281f604b658691cbfa6b9e9c22909f06b64a8ce87c94818360405161036f929190612910565b60405180910390a15050565b60008054906101000a900473ffffffffffffffffffffffffffffffffffffffff1673ffffffffffffffffffffffffffffffffffffffff163373ffffffffffffffffffffffffffffffffffffffff1614610400576040517f6db2465f00000000000000000000000000000000000000000000000000000000815260040160405180910390fd5b6003600084815260200190815260200160002060009054906101000a900460ff16610457576040517fca2a541a00000000000000000000000000000000000000000000000000000000815260040160405180910390fd5b6000600260008581526020019081526020016000209050600073ffffffffffffffffffffffffffffffffffffffff168160090160009054906101000a900473ffffffffffffffffffffffffffffffffffffffff1673ffffffffffffffffffffffffffffffffffffffff16036104f8576040517f39dec4db00000000000000000000000000000000000000000000000000000000815260040160405180910390fd5b6000816012015414610536576040517fcdd41a0c00000000000000000000000000000000000000000000000000000000815260040160405180910390fd5b6000838051906020012090506040518060400160405280600981526020017f636f6d706c6574656400000000000000000000000000000000000000000000008152508051906020012081141580156105ca57506040518060400160405280600481526020017f66616b6500000000000000000000000000000000000000000000000000000000815250805190602001208114155b15610601576040517ff525e32000000000000000000000000000000000000000000000000000000000815260040160405180910390fd5b6040518060400160405280600981526020017f636f6d706c65746564000000000000000000000000000000000000000000000081525080519060200120811461067f576040518060400160405280600e81526020017f766f6c756e746565725f66616b650000000000000000000000000000000000008152506106b6565b6040518060400160405280601381526020017f766f6c756e746565725f636f6d706c65746564000000000000000000000000008152505b8260070190816106c69190612b45565b508382600c0190816106d89190612b45565b508282600b0190816106ea9190612b45565b504282601101819055508160090160009054906101000a900473ffffffffffffffffffffffffffffffffffffffff1673ffffffffffffffffffffffffffffffffffffffff16857fe60c2a5c4bc6189b38fe13f0d09f808d1905762bba86c646c1cf5769dc41bc7d86864260405161076393929190612c61565b60405180910390a35050505050565b60036020528060005260406000206000915054906101000a900460ff1681565b60008054906101000a900473ffffffffffffffffffffffffffffffffffffffff1673ffffffffffffffffffffffffffffffffffffffff163373ffffffffffffffffffffffffffffffffffffffff1614610817576040517f6db2465f00000000000000000000000000000000000000000000000000000000815260040160405180910390fd5b6003600088815260200190815260200160002060009054906101000a900460ff161561086f576040517f8cd7d72400000000000000000000000000000000000000000000000000000000815260040160405180910390fd5b604051806102a001604052808881526020018781526020018673ffffffffffffffffffffffffffffffffffffffff16815260200185815260200184815260200183815260200182151581526020016040518060400160405280600781526020017f70656e64696e67000000000000000000000000000000000000000000000000008152508152602001604051806020016040528060008152508152602001600073ffffffffffffffffffffffffffffffffffffffff168152602001604051806020016040528060008152508152602001604051806020016040528060008152508152602001604051806020016040528060008152508152602001604051806020016040528060008152508152602001604051806020016040528060008152508152602001428152602001600081526020016000815260200160008152602001600081526020016000815250600260008981526020019081526020016000206000820151816000015560208201518160010190816109ec9190612b45565b5060408201518160020160006101000a81548173ffffffffffffffffffffffffffffffffffffffff021916908373ffffffffffffffffffffffffffffffffffffffff1602179055506060820151816003019081610a499190612b45565b506080820151816004019081610a5f9190612b45565b5060a0820151816005019081610a759190612b45565b5060c08201518160060160006101000a81548160ff02191690831515021790555060e0820151816007019081610aab9190612b45565b50610100820151816008019081610ac29190612b45565b506101208201518160090160006101000a81548173ffffffffffffffffffffffffffffffffffffffff021916908373ffffffffffffffffffffffffffffffffffffffff16021790555061014082015181600a019081610b219190612b45565b5061016082015181600b019081610b389190612b45565b5061018082015181600c019081610b4f9190612b45565b506101a082015181600d019081610b669190612b45565b506101c082015181600e019081610b7d9190612b45565b506101e082015181600f01556102008201518160100155610220820151816011015561024082015181601201556102608201518160130155610280820151816014015590505060016003600089815260200190815260200160002060006101000a81548160ff0219169083151502179055508473ffffffffffffffffffffffffffffffffffffffff16877f6f4442f567af7ee7920ee939efa1c0730fd7d46d2869b986d006c82c76d6c5be88868642604051610c3c9493929190612ca6565b60405180910390a350505050505050565b60008054906101000a900473ffffffffffffffffffffffffffffffffffffffff1673ffffffffffffffffffffffffffffffffffffffff163373ffffffffffffffffffffffffffffffffffffffff1614610cd2576040517f6db2465f00000000000000000000000000000000000000000000000000000000815260040160405180910390fd5b6003600085815260200190815260200160002060009054906101000a900460ff16610d29576040517fca2a541a00000000000000000000000000000000000000000000000000000000815260040160405180910390fd5b60006002600086815260200190815260200160002090506000816012015414610d7e576040517fcdd41a0c00000000000000000000000000000000000000000000000000000000815260040160405180910390fd5b6040518060400160405280600881526020017f61737369676e6564000000000000000000000000000000000000000000000000815250816007019081610dc49190612b45565b5083816008019081610dd69190612b45565b50818160090160006101000a81548173ffffffffffffffffffffffffffffffffffffffff021916908373ffffffffffffffffffffffffffffffffffffffff1602179055508281600a019081610e2b9190612b45565b504281601001819055508173ffffffffffffffffffffffffffffffffffffffff16857f4da86fee71bc991e7f2c1cfb9b4d97f11d8b1140e0eb3c7405b4cb2b386ac89f868642604051610e8093929190612c61565b60405180910390a35050505050565b60008054906101000a900473ffffffffffffffffffffffffffffffffffffffff1681565b6000600460008373ffffffffffffffffffffffffffffffffffffffff1673ffffffffffffffffffffffffffffffffffffffff168152602001908152602001600020549050919050565b60046020528060005260406000206000915090505481565b610f1c611f44565b6003600083815260200190815260200160002060009054906101000a900460ff16610f73576040517fca2a541a00000000000000000000000000000000000000000000000000000000815260040160405180910390fd5b60026000838152602001908152602001600020604051806102a001604052908160008201548152602001600182018054610fac90612968565b80601f0160208091040260200160405190810160405280929190818152602001828054610fd890612968565b80156110255780601f10610ffa57610100808354040283529160200191611025565b820191906000526020600020905b81548152906001019060200180831161100857829003601f168201915b505050505081526020016002820160009054906101000a900473ffffffffffffffffffffffffffffffffffffffff1673ffffffffffffffffffffffffffffffffffffffff1673ffffffffffffffffffffffffffffffffffffffff16815260200160038201805461109490612968565b80601f01602080910402602001604051908101604052809291908181526020018280546110c090612968565b801561110d5780601f106110e25761010080835404028352916020019161110d565b820191906000526020600020905b8154815290600101906020018083116110f057829003601f168201915b5050505050815260200160048201805461112690612968565b80601f016020809104026020016040519081016040528092919081815260200182805461115290612968565b801561119f5780601f106111745761010080835404028352916020019161119f565b820191906000526020600020905b81548152906001019060200180831161118257829003601f168201915b505050505081526020016005820180546111b890612968565b80601f01602080910402602001604051908101604052809291908181526020018280546111e490612968565b80156112315780601f1061120657610100808354040283529160200191611231565b820191906000526020600020905b81548152906001019060200180831161121457829003601f168201915b505050505081526020016006820160009054906101000a900460ff1615151515815260200160078201805461126590612968565b80601f016020809104026020016040519081016040528092919081815260200182805461129190612968565b80156112de5780601f106112b3576101008083540402835291602001916112de565b820191906000526020600020905b8154815290600101906020018083116112c157829003601f168201915b505050505081526020016008820180546112f790612968565b80601f016020809104026020016040519081016040528092919081815260200182805461132390612968565b80156113705780601f1061134557610100808354040283529160200191611370565b820191906000526020600020905b81548152906001019060200180831161135357829003601f168201915b505050505081526020016009820160009054906101000a900473ffffffffffffffffffffffffffffffffffffffff1673ffffffffffffffffffffffffffffffffffffffff1673ffffffffffffffffffffffffffffffffffffffff168152602001600a820180546113df90612968565b80601f016020809104026020016040519081016040528092919081815260200182805461140b90612968565b80156114585780601f1061142d57610100808354040283529160200191611458565b820191906000526020600020905b81548152906001019060200180831161143b57829003601f168201915b50505050508152602001600b8201805461147190612968565b80601f016020809104026020016040519081016040528092919081815260200182805461149d90612968565b80156114ea5780601f106114bf576101008083540402835291602001916114ea565b820191906000526020600020905b8154815290600101906020018083116114cd57829003601f168201915b50505050508152602001600c8201805461150390612968565b80601f016020809104026020016040519081016040528092919081815260200182805461152f90612968565b801561157c5780601f106115515761010080835404028352916020019161157c565b820191906000526020600020905b81548152906001019060200180831161155f57829003601f168201915b50505050508152602001600d8201805461159590612968565b80601f01602080910402602001604051908101604052809291908181526020018280546115c190612968565b801561160e5780601f106115e35761010080835404028352916020019161160e565b820191906000526020600020905b8154815290600101906020018083116115f157829003601f168201915b50505050508152602001600e8201805461162790612968565b80601f016020809104026020016040519081016040528092919081815260200182805461165390612968565b80156116a05780601f10611675576101008083540402835291602001916116a0565b820191906000526020600020905b81548152906001019060200180831161168357829003601f168201915b50505050508152602001600f8201548152602001601082015481526020016011820154815260200160128201548152602001601382015481526020016014820154815250509050919050565b60008054906101000a900473ffffffffffffffffffffffffffffffffffffffff1673ffffffffffffffffffffffffffffffffffffffff163373ffffffffffffffffffffffffffffffffffffffff1614611771576040517f6db2465f00000000000000000000000000000000000000000000000000000000815260040160405180910390fd5b6003600085815260200190815260200160002060009054906101000a900460ff166117c8576040517fca2a541a00000000000000000000000000000000000000000000000000000000815260040160405180910390fd5b6000600260008681526020019081526020016000209050600073ffffffffffffffffffffffffffffffffffffffff168160090160009054906101000a900473ffffffffffffffffffffffffffffffffffffffff1673ffffffffffffffffffffffffffffffffffffffff1603611869576040517f39dec4db00000000000000000000000000000000000000000000000000000000815260040160405180910390fd5b60008160110154036118a7576040517f2e6f50c700000000000000000000000000000000000000000000000000000000815260040160405180910390fd5b60008160120154146118e5576040517fcdd41a0c00000000000000000000000000000000000000000000000000000000815260040160405180910390fd5b600084805190602001209050600082600c016040516119049190612da3565b604051809103902090506040518060400160405280600981526020017f636f6d706c65746564000000000000000000000000000000000000000000000081525080519060200120821415801561199657506040518060400160405280600481526020017f66616b6500000000000000000000000000000000000000000000000000000000815250805190602001208214155b80156119de57506040518060400160405280600881526020017f6469737075746564000000000000000000000000000000000000000000000000815250805190602001208214155b15611a15576040517ff525e32000000000000000000000000000000000000000000000000000000000815260040160405180910390fd5b6040518060400160405280600981526020017f636f6d706c657465640000000000000000000000000000000000000000000000815250805190602001208203611c66576040518060400160405280600981526020017f636f6d706c657465640000000000000000000000000000000000000000000000815250805190602001208114611acd576040517fd73595ae00000000000000000000000000000000000000000000000000000000815260040160405180910390fd5b6001543414611b08576040517f3853986500000000000000000000000000000000000000000000000000000000815260040160405180910390fd5b60008360090160009054906101000a900473ffffffffffffffffffffffffffffffffffffffff1673ffffffffffffffffffffffffffffffffffffffff16600154604051611b5490612de0565b60006040518083038185875af1925050503d8060008114611b91576040519150601f19603f3d011682016040523d82523d6000602084013e611b96565b606091505b5050905080611bd1576040517f78ecf41000000000000000000000000000000000000000000000000000000000815260040160405180910390fd5b60015484601301819055504284601401819055506001600460008660090160009054906101000a900473ffffffffffffffffffffffffffffffffffffffff1673ffffffffffffffffffffffffffffffffffffffff1673ffffffffffffffffffffffffffffffffffffffff1681526020019081526020016000206000828254611c599190612e24565b9250508190555050611e14565b6040518060400160405280600481526020017f66616b6500000000000000000000000000000000000000000000000000000000815250805190602001208203611dd8576040518060400160405280600481526020017f66616b6500000000000000000000000000000000000000000000000000000000815250805190602001208114611d1e576040517fd73595ae00000000000000000000000000000000000000000000000000000000815260040160405180910390fd5b60003414611d58576040517f3853986500000000000000000000000000000000000000000000000000000000815260040160405180910390fd5b6001600460008560090160009054906101000a900473ffffffffffffffffffffffffffffffffffffffff1673ffffffffffffffffffffffffffffffffffffffff1673ffffffffffffffffffffffffffffffffffffffff1681526020019081526020016000206000828254611dcc9190612e68565b92505081905550611e13565b60003414611e12576040517f3853986500000000000000000000000000000000000000000000000000000000815260040160405180910390fd5b5b5b85836007019081611e259190612b45565b508483600d019081611e379190612b45565b508383600e019081611e499190612b45565b504283601201819055508260090160009054906101000a900473ffffffffffffffffffffffffffffffffffffffff1673ffffffffffffffffffffffffffffffffffffffff16877f841642661dc21f155759d663620ebb0ebff6408445ee5854c1854fcc60d52f408888600460008960090160009054906101000a900473ffffffffffffffffffffffffffffffffffffffff1673ffffffffffffffffffffffffffffffffffffffff1673ffffffffffffffffffffffffffffffffffffffff16815260200190815260200160002054886013015442604051611f2d959493929190612eab565b60405180910390a350505050505050565b60015481565b604051806102a001604052806000815260200160608152602001600073ffffffffffffffffffffffffffffffffffffffff1681526020016060815260200160608152602001606081526020016000151581526020016060815260200160608152602001600073ffffffffffffffffffffffffffffffffffffffff16815260200160608152602001606081526020016060815260200160608152602001606081526020016000815260200160008152602001600081526020016000815260200160008152602001600081525090565b6000604051905090565b600080fd5b600080fd5b6000819050919050565b61203981612026565b811461204457600080fd5b50565b60008135905061205681612030565b92915050565b6000602082840312156120725761207161201c565b5b600061208084828501612047565b91505092915050565b600080fd5b600080fd5b6000601f19601f8301169050919050565b7f4e487b7100000000000000000000000000000000000000000000000000000000600052604160045260246000fd5b6120dc82612093565b810181811067ffffffffffffffff821117156120fb576120fa6120a4565b5b80604052505050565b600061210e612012565b905061211a82826120d3565b919050565b600067ffffffffffffffff82111561213a576121396120a4565b5b61214382612093565b9050602081019050919050565b82818337600083830152505050565b600061217261216d8461211f565b612104565b90508281526020810184848401111561218e5761218d61208e565b5b612199848285612150565b509392505050565b600082601f8301126121b6576121b5612089565b5b81356121c684826020860161215f565b91505092915050565b6000806000606084860312156121e8576121e761201c565b5b60006121f686828701612047565b935050602084013567ffffffffffffffff81111561221757612216612021565b5b612223868287016121a1565b925050604084013567ffffffffffffffff81111561224457612243612021565b5b612250868287016121a1565b9150509250925092565b60008115159050919050565b61226f8161225a565b82525050565b600060208201905061228a6000830184612266565b92915050565b600073ffffffffffffffffffffffffffffffffffffffff82169050919050565b60006122bb82612290565b9050919050565b6122cb816122b0565b81146122d657600080fd5b50565b6000813590506122e8816122c2565b92915050565b6122f78161225a565b811461230257600080fd5b50565b600081359050612314816122ee565b92915050565b600080600080600080600060e0888a0312156123395761233861201c565b5b60006123478a828b01612047565b975050602088013567ffffffffffffffff81111561236857612367612021565b5b6123748a828b016121a1565b96505060406123858a828b016122d9565b955050606088013567ffffffffffffffff8111156123a6576123a5612021565b5b6123b28a828b016121a1565b945050608088013567ffffffffffffffff8111156123d3576123d2612021565b5b6123df8a828b016121a1565b93505060a088013567ffffffffffffffff811115612400576123ff612021565b5b61240c8a828b016121a1565b92505060c061241d8a828b01612305565b91505092959891949750929550565b600080600080608085870312156124465761244561201c565b5b600061245487828801612047565b945050602085013567ffffffffffffffff81111561247557612474612021565b5b612481878288016121a1565b935050604085013567ffffffffffffffff8111156124a2576124a1612021565b5b6124ae878288016121a1565b92505060606124bf878288016122d9565b91505092959194509250565b6124d4816122b0565b82525050565b60006020820190506124ef60008301846124cb565b92915050565b60006020828403121561250b5761250a61201c565b5b6000612519848285016122d9565b91505092915050565b6000819050919050565b61253581612522565b82525050565b6000602082019050612550600083018461252c565b92915050565b61255f81612026565b82525050565b600081519050919050565b600082825260208201905092915050565b60005b8381101561259f578082015181840152602081019050612584565b60008484015250505050565b60006125b682612565565b6125c08185612570565b93506125d0818560208601612581565b6125d981612093565b840191505092915050565b6125ed816122b0565b82525050565b6125fc8161225a565b82525050565b60006102a08301600083015161261b6000860182612556565b506020830151848203602086015261263382826125ab565b915050604083015161264860408601826125e4565b506060830151848203606086015261266082826125ab565b9150506080830151848203608086015261267a82826125ab565b91505060a083015184820360a086015261269482826125ab565b91505060c08301516126a960c08601826125f3565b5060e083015184820360e08601526126c182826125ab565b9150506101008301518482036101008601526126dd82826125ab565b9150506101208301516126f46101208601826125e4565b5061014083015184820361014086015261270e82826125ab565b91505061016083015184820361016086015261272a82826125ab565b91505061018083015184820361018086015261274682826125ab565b9150506101a08301518482036101a086015261276282826125ab565b9150506101c08301518482036101c086015261277e82826125ab565b9150506101e08301516127956101e0860182612556565b506102008301516127aa610200860182612556565b506102208301516127bf610220860182612556565b506102408301516127d4610240860182612556565b506102608301516127e9610260860182612556565b506102808301516127fe610280860182612556565b508091505092915050565b600060208201905081810360008301526128238184612602565b905092915050565b600080600080608085870312156128455761284461201c565b5b600061285387828801612047565b945050602085013567ffffffffffffffff81111561287457612873612021565b5b612880878288016121a1565b935050604085013567ffffffffffffffff8111156128a1576128a0612021565b5b6128ad878288016121a1565b925050606085013567ffffffffffffffff8111156128ce576128cd612021565b5b6128da878288016121a1565b91505092959194509250565b6128ef81612026565b82525050565b600060208201905061290a60008301846128e6565b92915050565b600060408201905061292560008301856128e6565b61293260208301846128e6565b9392505050565b7f4e487b7100000000000000000000000000000000000000000000000000000000600052602260045260246000fd5b6000600282049050600182168061298057607f821691505b60208210810361299357612992612939565b5b50919050565b60008190508160005260206000209050919050565b60006020601f8301049050919050565b600082821b905092915050565b6000600883026129fb7fffffffffffffffffffffffffffffffffffffffffffffffffffffffffffffffff826129be565b612a0586836129be565b95508019841693508086168417925050509392505050565b6000819050919050565b6000612a42612a3d612a3884612026565b612a1d565b612026565b9050919050565b6000819050919050565b612a5c83612a27565b612a70612a6882612a49565b8484546129cb565b825550505050565b600090565b612a85612a78565b612a90818484612a53565b505050565b5b81811015612ab457612aa9600082612a7d565b600181019050612a96565b5050565b601f821115612af957612aca81612999565b612ad3846129ae565b81016020851015612ae2578190505b612af6612aee856129ae565b830182612a95565b50505b505050565b600082821c905092915050565b6000612b1c60001984600802612afe565b1980831691505092915050565b6000612b358383612b0b565b9150826002028217905092915050565b612b4e82612565565b67ffffffffffffffff811115612b6757612b666120a4565b5b612b718254612968565b612b7c828285612ab8565b600060209050601f831160018114612baf5760008415612b9d578287015190505b612ba78582612b29565b865550612c0f565b601f198416612bbd86612999565b60005b82811015612be557848901518255600182019150602085019450602081019050612bc0565b86831015612c025784890151612bfe601f891682612b0b565b8355505b6001600288020188555050505b505050505050565b600082825260208201905092915050565b6000612c3382612565565b612c3d8185612c17565b9350612c4d818560208601612581565b612c5681612093565b840191505092915050565b60006060820190508181036000830152612c7b8186612c28565b90508181036020830152612c8f8185612c28565b9050612c9e60408301846128e6565b949350505050565b60006080820190508181036000830152612cc08187612c28565b90508181036020830152612cd48186612c28565b90508181036040830152612ce88185612c28565b9050612cf760608301846128e6565b95945050505050565b600081905092915050565b60008190508160005260206000209050919050565b60008154612d2d81612968565b612d378186612d00565b94506001821660008114612d525760018114612d6757612d9a565b60ff1983168652811515820286019350612d9a565b612d7085612d0b565b60005b83811015612d9257815481890152600182019150602081019050612d73565b838801955050505b50505092915050565b6000612daf8284612d20565b915081905092915050565b50565b6000612dca600083612d00565b9150612dd582612dba565b600082019050919050565b6000612deb82612dbd565b9150819050919050565b7f4e487b7100000000000000000000000000000000000000000000000000000000600052601160045260246000fd5b6000612e2f82612522565b9150612e3a83612522565b925082820190508281121560008312168382126000841215161715612e6257612e61612df5565b5b92915050565b6000612e7382612522565b9150612e7e83612522565b9250828203905081811260008412168282136000851215161715612ea557612ea4612df5565b5b92915050565b600060a0820190508181036000830152612ec58188612c28565b90508181036020830152612ed98187612c28565b9050612ee8604083018661252c565b612ef560608301856128e6565b612f0260808301846128e6565b969550505050505056fea26469706673582212202bc857870617c2e034eaf3c631b021a9828156fce0679d4e41b240bd6d844ef964736f6c63430008180033",
  "linkReferences": {},
  "deployedLinkReferences": {}
}