{
  "_format": "hh-sol-artifact-1",
  "contractName": "ResQNetProtocol",
  "sourceName": "contracts/ResQNetProtocol.sol",
  "abi": [
    {
      "inputs": [],
      "stateMutability": "nonpayable",
      "type": "constructor"
    },
    {
      "inputs": [],
      "name": "CallerIsNotOwner",
      "type": "error"
    },
    {
      "inputs": [],
      "name": "InvalidStatus",
      "type": "error"
    },
    {
      "inputs": [],
      "name": "SOSAlreadyLogged",
      "type": "error"
    },
    {
      "anonymous": false,
      "inputs": [
        {
          "indexed": true,
          "internalType": "uint256",
          "name": "id",
          "type": "uint256"
        },
        {
          "indexed": true,
          "internalType": "address",
          "name": "volunteer",
          "type": "address"
        },
        {
          "indexed": false,
          "internalType": "string",
          "name": "status",
          "type": "string"
        },
        {
          "indexed": false,
          "internalType": "uint256",
          "name": "timestamp",
          "type": "uint256"
        },
        {
          "indexed": false,
          "internalType": "int256",
          "name": "newReputation",
          "type": "int256"
        }
      ],
      "name": "SOSLogged",
      "type": "event"
    },
    {
      "inputs": [
        {
          "internalType": "address",
          "name": "user",
          "type": "address"
        }
      ],
      "name": "getReputation",
      "outputs": [
        {
          "internalType": "int256",
          "name": "",
          "type": "int256"
        }
      ],
      "stateMutability": "view",
      "type": "function"
    },
    {
      "inputs": [
        {
          "internalType": "uint256",
          "name": "_id",
          "type": "uint256"
        }
      ],
      "name": "getSOS",
      "outputs": [
        {
          "internalType": "uint256",
          "name": "id",
          "type": "uint256"
        },
        {
          "internalType": "address",
          "name": "volunteer",
          "type": "address"
        },
        {
          "internalType": "string",
          "name": "status",
          "type": "string"
        },
        {
          "internalType": "uint256",
          "name": "timestamp",
          "type": "uint256"
        }
      ],
      "stateMutability": "view",
      "type": "function"
    },
    {
      "inputs": [
        {
          "internalType": "uint256",
          "name": "_id",
          "type": "uint256"
        },
        {
          "internalType": "address",
          "name": "_volunteer",
          "type": "address"
        },
        {
          "internalType": "string",
          "name": "_status",
          "type": "string"
        }
      ],
      "name": "logSOS",
      "outputs": [],
      "stateMutability": "nonpayable",
      "type": "function"
    },
    {
      "inputs": [],
      "name": "owner",
      "outputs": [
        {
          "internalType": "address",
          "name": "",
          "type": "address"
        }
      ],
      "stateMutability": "view",
      "type": "function"
    },
    {
      "inputs": [
        {
          "internalType": "address",
          "name": "",
          "type": "address"
        }
      ],
      "name": "reputation",
      "outputs": [
        {
          "internalType": "int256",
          "name": "",
          "type": "int256"
        }
      ],
      "stateMutability": "view",
      "type": "function"
    },
    {
      "inputs": [
        {
          "internalType": "uint256",
          "name": "",
          "type": "uint256"
        }
      ],
      "name": "sosExists",
      "outputs": [
        {
          "internalType": "bool",
          "name": "",
          "type": "bool"
        }
      ],
      "stateMutability": "view",
      "type": "function"
    },
    {
      "inputs": [
        {
          "internalType": "uint256",
          "name": "",
          "type": "uint256"
        }
      ],
      "name": "sosLogs",
      "outputs": [
        {
          "internalType": "uint256",
          "name": "id",
          "type": "uint256"
        },
        {
          "internalType": "address",
          "name": "volunteer",
          "type": "address"
        },
        {
          "internalType": "string",
          "name": "status",
          "type": "string"
        },
        {
          "internalType": "uint256",
          "name": "timestamp",
          "type": "uint256"
        }
      ],
      "stateMutability": "view",
      "type": "function"
    }
  ],
  "bytecode": "0x608060405234801561001057600080fd5b50336000806101000a81548173ffffffffffffffffffffffffffffffffffffffff021916908373ffffffffffffffffffffffffffffffffffffffff1602179055506110c5806100606000396000f3fe608060405234801561001057600080fd5b506004361061007d5760003560e01c80639c89a0e21161005b5780639c89a0e214610103578063accb1cf714610133578063b9f794511461014f578063c729ff331461017f5761007d565b8063023f3c2614610082578063360530cb146100b55780638da5cb5b146100e5575b600080fd5b61009c600480360381019061009791906108e2565b6101b2565b6040516100ac94939291906109ef565b60405180910390f35b6100cf60048036038101906100ca91906108e2565b61028a565b6040516100dc9190610a56565b60405180910390f35b6100ed6102aa565b6040516100fa9190610a71565b60405180910390f35b61011d60048036038101906101189190610ab8565b6102ce565b60405161012a9190610afe565b60405180910390f35b61014d60048036038101906101489190610c4e565b610317565b005b61016960048036038101906101649190610ab8565b610738565b6040516101769190610afe565b60405180910390f35b610199600480360381019061019491906108e2565b610750565b6040516101a994939291906109ef565b60405180910390f35b60016020528060005260406000206000915090508060000154908060010160009054906101000a900473ffffffffffffffffffffffffffffffffffffffff169080600201805461020190610cec565b80601f016020809104026020016040519081016040528092919081815260200182805461022d90610cec565b801561027a5780601f1061024f5761010080835404028352916020019161027a565b820191906000526020600020905b81548152906001019060200180831161025d57829003601f168201915b5050505050908060030154905084565b60026020528060005260406000206000915054906101000a900460ff1681565b60008054906101000a900473ffffffffffffffffffffffffffffffffffffffff1681565b6000600360008373ffffffffffffffffffffffffffffffffffffffff1673ffffffffffffffffffffffffffffffffffffffff168152602001908152602001600020549050919050565b60008054906101000a900473ffffffffffffffffffffffffffffffffffffffff1673ffffffffffffffffffffffffffffffffffffffff163373ffffffffffffffffffffffffffffffffffffffff161461039c576040517f6db2465f00000000000000000000000000000000000000000000000000000000815260040160405180910390fd5b6002600084815260200190815260200160002060009054906101000a900460ff16156103f4576040517f8f35bb8400000000000000000000000000000000000000000000000000000000815260040160405180910390fd5b6000818051906020012090506040518060400160405280600981526020017f636f6d706c65746564000000000000000000000000000000000000000000000081525080519060200120811415801561048857506040518060400160405280600481526020017f66616b6500000000000000000000000000000000000000000000000000000000815250805190602001208114155b156104bf576040517ff525e32000000000000000000000000000000000000000000000000000000000815260040160405180910390fd5b60405180608001604052808581526020018473ffffffffffffffffffffffffffffffffffffffff16815260200183815260200142815250600160008681526020019081526020016000206000820151816000015560208201518160010160006101000a81548173ffffffffffffffffffffffffffffffffffffffff021916908373ffffffffffffffffffffffffffffffffffffffff160217905550604082015181600201908161056f9190610ec9565b506060820151816003015590505060016002600086815260200190815260200160002060006101000a81548160ff0219169083151502179055506040518060400160405280600981526020017f636f6d706c657465640000000000000000000000000000000000000000000000815250805190602001208103610648576001600360008573ffffffffffffffffffffffffffffffffffffffff1673ffffffffffffffffffffffffffffffffffffffff168152602001908152602001600020600082825461063c9190610fca565b925050819055506106a0565b6001600360008573ffffffffffffffffffffffffffffffffffffffff1673ffffffffffffffffffffffffffffffffffffffff1681526020019081526020016000206000828254610698919061100e565b925050819055505b8273ffffffffffffffffffffffffffffffffffffffff16847f46ff544fb2f8a63bc42a0eb383adf0500b72fb31e958b5a432395d0218e9e6b38442600360008973ffffffffffffffffffffffffffffffffffffffff1673ffffffffffffffffffffffffffffffffffffffff1681526020019081526020016000205460405161072a93929190611051565b60405180910390a350505050565b60036020528060005260406000206000915090505481565b600080606060008060016000878152602001908152602001600020604051806080016040529081600082015481526020016001820160009054906101000a900473ffffffffffffffffffffffffffffffffffffffff1673ffffffffffffffffffffffffffffffffffffffff1673ffffffffffffffffffffffffffffffffffffffff1681526020016002820180546107e690610cec565b80601f016020809104026020016040519081016040528092919081815260200182805461081290610cec565b801561085f5780601f106108345761010080835404028352916020019161085f565b820191906000526020600020905b81548152906001019060200180831161084257829003601f168201915b50505050508152602001600382015481525050905080600001518160200151826040015183606001519450945094509450509193509193565b6000604051905090565b600080fd5b600080fd5b6000819050919050565b6108bf816108ac565b81146108ca57600080fd5b50565b6000813590506108dc816108b6565b92915050565b6000602082840312156108f8576108f76108a2565b5b6000610906848285016108cd565b91505092915050565b610918816108ac565b82525050565b600073ffffffffffffffffffffffffffffffffffffffff82169050919050565b60006109498261091e565b9050919050565b6109598161093e565b82525050565b600081519050919050565b600082825260208201905092915050565b60005b8381101561099957808201518184015260208101905061097e565b60008484015250505050565b6000601f19601f8301169050919050565b60006109c18261095f565b6109cb818561096a565b93506109db81856020860161097b565b6109e4816109a5565b840191505092915050565b6000608082019050610a04600083018761090f565b610a116020830186610950565b8181036040830152610a2381856109b6565b9050610a32606083018461090f565b95945050505050565b60008115159050919050565b610a5081610a3b565b82525050565b6000602082019050610a6b6000830184610a47565b92915050565b6000602082019050610a866000830184610950565b92915050565b610a958161093e565b8114610aa057600080fd5b50565b600081359050610ab281610a8c565b92915050565b600060208284031215610ace57610acd6108a2565b5b6000610adc84828501610aa3565b91505092915050565b6000819050919050565b610af881610ae5565b82525050565b6000602082019050610b136000830184610aef565b92915050565b600080fd5b600080fd5b7f4e487b7100000000000000000000000000000000000000000000000000000000600052604160045260246000fd5b610b5b826109a5565b810181811067ffffffffffffffff82111715610b7a57610b79610b23565b5b80604052505050565b6000610b8d610898565b9050610b998282610b52565b919050565b600067ffffffffffffffff821115610bb957610bb8610b23565b5b610bc2826109a5565b9050602081019050919050565b82818337600083830152505050565b6000610bf1610bec84610b9e565b610b83565b905082815260208101848484011115610c0d57610c0c610b1e565b5b610c18848285610bcf565b509392505050565b600082601f830112610c3557610c34610b19565b5b8135610c45848260208601610bde565b91505092915050565b600080600060608486031215610c6757610c666108a2565b5b6000610c75868287016108cd565b9350506020610c8686828701610aa3565b925050604084013567ffffffffffffffff811115610ca757610ca66108a7565b5b610cb386828701610c20565b9150509250925092565b7f4e487b7100000000000000000000000000000000000000000000000000000000600052602260045260246000fd5b60006002820490506001821680610d0457607f821691505b602082108103610d1757610d16610cbd565b5b50919050565b60008190508160005260206000209050919050565b60006020601f8301049050919050565b600082821b905092915050565b600060088302610d7f7fffffffffffffffffffffffffffffffffffffffffffffffffffffffffffffffff82610d42565b610d898683610d42565b95508019841693508086168417925050509392505050565b6000819050919050565b6000610dc6610dc1610dbc846108ac565b610da1565b6108ac565b9050919050565b6000819050919050565b610de083610dab565b610df4610dec82610dcd565b848454610d4f565b825550505050565b600090565b610e09610dfc565b610e14818484610dd7565b505050565b5b81811015610e3857610e2d600082610e01565b600181019050610e1a565b5050565b601f821115610e7d57610e4e81610d1d565b610e5784610d32565b81016020851015610e66578190505b610e7a610e7285610d32565b830182610e19565b50505b505050565b600082821c905092915050565b6000610ea060001984600802610e82565b1980831691505092915050565b6000610eb98383610e8f565b9150826002028217905092915050565b610ed28261095f565b67ffffffffffffffff811115610eeb57610eea610b23565b5b610ef58254610cec565b610f00828285610e3c565b600060209050601f831160018114610f335760008415610f21578287015190505b610f2b8582610ead565b865550610f93565b601f198416610f4186610d1d565b60005b82811015610f6957848901518255600182019150602085019450602081019050610f44565b86831015610f865784890151610f82601f891682610e8f565b8355505b6001600288020188555050505b505050505050565b7f4e487b7100000000000000000000000000000000000000000000000000000000600052601160045260246000fd5b6000610fd582610ae5565b9150610fe083610ae5565b92508282019050828112156000831216838212600084121516171561100857611007610f9b565b5b92915050565b600061101982610ae5565b915061102483610ae5565b925082820390508181126000841216828213600085121516171561104b5761104a610f9b565b5b92915050565b6000606082019050818103600083015261106b81866109b6565b905061107a602083018561090f565b6110876040830184610aef565b94935050505056fea2646970667358221220d2be851cd3b676c5b4d183b5ee978631d704e359fb4c2a9c0ce14be54d9c8a1c64736f6c63430008180033",
  "linkReferences": {},
  "deployedLinkReferences": {}
}